:020000040800F2
:1000000020090020090300084703000849030008ED
:100010004B0300084D0300084F03000800000000D8
:100020000000000000000000000000005103000874
:10003000530300080000000055030008411D00089C
:100040005903000859030008590300085903000820
:100050005903000859030008590300085903000810
:1000600059030008DD170008F917000859030008B4
:1000700059030008590300085903000859030008F0
:1000800059030008590300085903000859030008E0
:1000900059030008590300085903000859030008D0
:1000A00059030008590300085903000859030008C0
:1000B000511D00085903000859030008590300089E
:1000C00059030008590300085903000859030008A0
:1000D0005903000859030008590300085903000890
:1000E0005903000859030008590300085903000880
:1000F0005903000859030008590300085903000870
:10010000590300085903000859030008590300085F
:10011000590300085903000859030008590300084F
:10012000590300085903000859030008590300083F
:10013000590300085903000859030008590300082F
:10014000590300085903000859030008590300081F
:10015000590300085903000859030008590300080F
:1001600059030008590300085903000859030008FF
:100170005903000859030008590300080000000053
:10018000590300085903000800F002F800F0ACF829
:1001900014A696E8000CB244B344DA4501D100F04D
:1001A000A3F8BAE80F000FA696E83000A5EB040507
:1001B00004EB0607AAEB0704A7F101074FEA1515A0
:1001C0004FEA3414A4F10104AC4201D300F08CF8DE
:1001D00013F0010F18BFFB1A43F0010300F001F800
:1001E000DBE7184788460000A8460000103A24BF05
:1001F00078C878C1FAD8520724BF30C830C144BF8C
:1002000004680C6070470000704700000023002461
:1002100000250026103A28BF78C1FBD8520728BF16
:1002200030C148BF0B6070476E2900F061827029B1
:1002300000F0A983662904F04482652904F0418214
:10024000672904F03E82612904F03D8203681B0A9D
:1002500028BF41F08001692900F00E82642900F076
:100260000B82752900F008826F2900F03783782906
:1002700000F07583E92900F0D182E42900F0CE82F4
:10028000F52900F0CB82EF2900F03483F82900F043
:1002900074830368DB0928BF41F08001632901F002
:1002A000D080732901F0D580E32901F0E080F329A3
:1002B00001F0E580002070471FB504F0F0F99DE8DB
:1002C000030000F041F901F037F90400002000219B
:1002D00003F028FC401C60600020002103F00CFCAF
:1002E000E0601FBD10B510BD01F0F9F81146FFF731
:1002F000E3FF02F079FD01F0D5F903B4FFF7F2FF57
:1003000003BC01F005FA000017481849184B994240
:100310003CBF50F8042B41F8042BF8D3154B164979
:100320004FF000028B4238BF43F8042BFAD3DFF8BA
:100330004C00016841F470010160BFF34F8FBFF3BF
:100340006F8F0F480047FEE7FEE7FEE7FEE7FEE798
:10035000FEE7FEE7FEE7FEE7FEE7000009480A4980
:100360000A4A0B4B70470000B84900080000002003
:1003700008000020080000202009002088ED00E08F
:10038000890100082001002020090020200500200C
:100390002005002070B5064600F0BAF8056806F1A1
:1003A0000B0020F00704B4429CBF002070BD2B4618
:1003B0006A68BAB11068A04210D304F108018842FB
:1003C0003CBF5068586007D35168101941601168EC
:1003D000091B016058601460101D70BD13465268FF
:1003E000002AE7D12146284600F09AF80028DED1FD
:1003F00070BD70B50446051F00F08AF80068002C37
:1004000014BF446870BD002C18BFAC423CBF2046EE
:100410006468F8D301680A18AA4218BF456003D17E
:100420002A6805461144016028684119A1421CBF91
:100430006C6070BD6168696021680844286070BDA7
:100440000FB41CB50C0007AA009007D04142A1428E
:1004500002D32044401E01E04FF0FF30074B7B44A5
:1004600069460190069800F05CF90021002C01D04B
:10047000009A11701CBC5DF814FB0000E70200003C
:10048000032A40F2308010F0030C00F0158011F8C0
:10049000013BBCF1020F624498BF11F801CB00F898
:1004A000013B38BF11F8013BA2F1040298BF00F8EC
:1004B00001CB38BF00F8013B11F0030300F0358396
:1004C000083AC0F0088051F8043B083A51F804CBD0
:1004D000A0E80810F5E7121D5CBF51F8043B40F896
:1004E000043BAFF30080D20724BF11F8013B11F8A1
:1004F00001CB48BF11F8012B24BF00F8013B00F8E5
:1005000001CB48BF00F8012B704770477047704718
:1005100000487047100000207047704770477047D0
:1005200038B504460A4600206946AFF3008000282B
:1005300008BF38BD02460099204600F02DFB01207F
:1005400038BD012000F0C3BFF8B5AFF30080054609
:1005500000200C460C2000BF0646A819A0420DD969
:10056000324669460020AFF30080070008BF00F064
:10057000AEFF0098A04218BF0546C419FFF7C8FF98
:1005800005600746F01D20F007004619284600F0D8
:100590000AF8B44208BFF8BDA21B31463868BDE86E
:1005A000F84000F0F9BA00210160416070470C206A
:1005B000704770B5044685690068C10601D53026CC
:1005C00000E02026C00707D070BDD4E901213046E5
:1005D0009047206A401C20626D1EF6D570BD70B534
:1005E000044685690078C00707D170BDD4E90121B0
:1005F00020209047206A401C20626D1EF6D570BDF9
:1006000009684A0501D540B27047C905FCD500B25A
:10061000704709684A0501D5C0B27047C905FCD5C5
:1006200080B2704770B50C460546012A05D028787F
:10063000800600D5EA69002302E0012305E05B1C87
:10064000934202D2E05C0028F9D1A869E618C01AEA
:10065000A861286A184428622846FFF7AAFF04E028
:10066000D5E9012114F8010B9047B442F8D328468C
:10067000FFF7B5FF70BD00002DE9F04106460024EC
:1006800010687529314616A510D0FFF7B9FF00286C
:1006900002DA404213A507E031688A0701D512A5A6
:1006A00002E0490704D511A5012401E0FFF7B1FFDD
:1006B00000210A2206F1240709E0B0FBF2FCB0FB9E
:1006C000F2F302FB1C00303078541846491C002815
:1006D000F3D123462A463046BDE8F04100F0BBBACC
:1006E000000000002D0000002B0000002000000092
:1006F00011680268006A530501D508700AE0D30545
:1007000001D5088006E0130603D5C217C1E900022F
:1007100000E008600120704701694A1C0261087806
:10072000704700B58FB0CDE9013100210591054931
:100730007944CDE903101146684600F02FF90FB057
:1007400000BD0000E5FFFFFFD1E900239A4202D27D
:10075000531C0B60107070472DE9FF5F15468A46E9
:100760000446DFF8AC80F8440027D8E900103E4684
:10077000CDE9001010E03AF816106A4602A800F021
:1007800082FE411C07D02178890603D5E269391819
:1007900091420DD80744761C2078800602D5E06986
:1007A000B84205DDAE42E6DB3AF816000028E2D199
:1007B000A069C01BA0612046FFF7FBFED8E900102E
:1007C000CDE90010002017E03AF818106A4602A898
:1007D00000F059FEB0F1FF3F81460BD000250DF12E
:1007E000080B05E0D4E901211BF8050090476D1CBA
:1007F0004D45F7D308F10100B0428046E4DB206AA2
:10080000384420622046FFF7EAFE00F003B80000FB
:10081000623F00003FBCBDE8C09F00002DE9F041F1
:100820008046D21D22F007020025D2E90002F529F8
:1008300015A614D0011E72F1000106DA0023D0EBD8
:10084000030063EB020211A608E0D8F800108B0742
:1008500001D50FA602E0490701D50EA601251146D4
:10086000002408F1240704E000F0B0F930323A55D2
:10087000641C50EA0102F7D12B463246214640461D
:10088000BDE8F04100F0E7B9000000002D000000D5
:100890002B0000002000000030B4002100F12404EF
:1008A00008E002F00705D208303542EA4372DB085F
:1008B0006554491C52EA0305F3D10468002310A2D1
:1008C000250708D504F020040C4304D0C469012393
:1008D0000CA2641EC46130BC00F0BDB910B5044662
:1008E00021461068FFF795FE02462046BDE81040FD
:1008F0000023D1E7D21D22F00701D1E90023CBE785
:100900000000000030000000F0B40D460188090529
:1009100002D5214C7C4402E01F4C7C440E34002163
:1009200000F1240608E002F00F071209E75D42EA31
:1009300003721B097754491C52EA0307F3D102786A
:100940000023120704D5702D06D009B102231134FB
:100950002246F0BC00F07FB901231034F8E770B5EF
:1009600004460D4621461068FFF753FE024629460D
:100970002046BDE870400023C6E7D21D22F00703E1
:10098000D3E90023C0E70368126843F02003036043
:100990000823C3610023B7E7BC3D00002DE9F05FE9
:1009A000894604464FF0000ADFF874B1FB44C0F8F2
:1009B00020A02046E1688847002874D0252806D06A
:1009C000D4E901219047206A401C2062F1E700260B
:1009D0005F462046E16888472028054607DB312D21
:1009E00005D2781910F8200C08B10643F1E7B007DA
:1009F00001D526F00406C4F81CA00027C4F818A0EE
:100A00002A2D09D0284603F06FF838B304EB870885
:100A1000303DC8F8185019E059F8041B204604EB83
:100A200087029161E1688847012F054618D1E06986
:100A3000002820DA26F020061DE0D8F8180000EB88
:100A4000800005EB40003038C8F818002046E16807
:100A50008847054603F048F80028EED1012F0AD058
:100A60002E2D08D12046E16888477F1C0546022FBD
:100A700046F02006C4DBA069002803DA404246F0B5
:100A80000106A061F00701D026F010066C2D0BD0F6
:100A9000682D09D04C2D39D06A2D35D0742D35D024
:100AA0007A2D33D016E038E0E1682F46204688479B
:100AB000B842054609D16C2F26D04FF48060E1681A
:100AC000064320468847054604E06C2F1AD04FF4B1
:100AD000807006430DB3A5F14100192802D82035D6
:100AE00046F400664A462946204626604E46FFF7F1
:100AF0009BFB80B101280BD0F61D26F0070000F10A
:100B0000080956E74020E4E78020D8E70020D6E730
:100B100006F104094DE7284652E7206A00F002B8C2
:100B20004C3D000030BCBDE8C09F10B5203AC0F07D
:100B30000B80B1E81850A0E81850B1E81850A0E8B0
:100B40001850203ABFF4F5AF5FEA027C24BFB1E849
:100B50001850A0E8185044BF18C918C0BDE810408C
:100B60005FEA827C24BF51F8043B40F8043B08BF95
:100B70007047D20728BF31F8023B48BF11F8012B5C
:100B800028BF20F8023B48BF00F8012B7047000047
:100B90000048704708000020034640688C46002843
:100BA00018BF88423CBF03464068F8D31868184411
:100BB000884207D00CF1030020F00700001D411A05
:100BC000521A0146081D0A60FFF713BC30B5B0F198
:100BD0000A0271F100034FEA900E4EEA817EB0EBFB
:100BE0000E0061EB91014FEA101E4EEA017E10EB00
:100BF0000E0041EB11114FEA102E4EEA016E10EB80
:100C00000E0041EB11214FEA104E4EEA014E10EB5F
:100C10000E0041EB1141401841F100014FEAD000B4
:100C200040EA41704FEAD1014FEA810444EA9074EE
:100C300010EB800544EB01046D1944EB0404521BD6
:100C4000A3414FF0000348BF0A3200D530BD401C1D
:100C500041F1000130BD2DE9F0470D46994692461D
:100C6000044600F124080168880604D5E06921F0F3
:100C70001001216000E00120A84201DD471B00E0D7
:100C80000027A1697A1902EB0900081AA0612078EF
:100C9000C00602D42046FFF78CFC002608E0D4E909
:100CA00001211AF806009047206A401C761C206239
:100CB0004E45F4DB2078C0060AD52046FFF779FCC4
:100CC00006E0D4E9012130209047206A401C2062D0
:100CD000381EA7F10107F4DC07E0D4E9012118F878
:100CE00005009047206A401C2062281EA5F10105DE
:100CF000F3DC2046FFF773FC2078000602D50220C3
:100D0000BDE8F0870120FBE72DE9FF4F0C461E46AA
:100D10004FF0FF378BB0D2E90001DDF860800A9018
:100D20008A46C1F30A5505B93D46002108464FF0F1
:100D30000000BAF1000F00F4400005DA00EB80007B
:100D40004FF4400101EA50004FEA9059B9F1010F08
:100D500000DDB9460A9850EA4A000ED044F6105019
:100D6000A5F2FF3545432F14B8F1000F1ED0754290
:100D7000291E1EDDC9F100021CE0B8F1010F4FF081
:100D8000000001D0302103E0F24305E02154401C73
:100D9000B042FBDB30460022002121540B99C1F800
:100DA0000880C1E900200FB000F0BCB9BD1B6D1C6C
:100DB000DEE74A4600DA694206A800F001FC06AB0D
:100DC00093E8070003AB83E8070050460A9902F056
:100DD000ABFA8DE80700A0F500501F38009003988B
:100DE000002D0ADD42F21F014A460844002303A9F0
:100DF0000390684602F014FD09E0A0F500504A4651
:100E00001F38002303A90390684602F01EFD8DE8F9
:100E100007000004000C03D04FF0FF30410800E051
:100E20001046B8F1000F03D00022009215461EE0D4
:100E3000751E05D4FFF7CAFE303262556D1EF9D516
:100E4000B3460122084302D000227F1C04E0207830
:100E5000302801D100227F1E002A099784D01DE08E
:100E6000112D07DAFFF7B2FE303262556D1C50EAE1
:100E70000102F5D1084302D00098C8B10EE000216C
:100E8000681E05E0235C625C63542254401E491CCA
:100E90008142F7DBAB46A81B401E0990002004F8F6
:100EA0000B000B98099AC0F80880C0E9002B7AE77C
:100EB00011264FF0000857E72DE9F04F8846044609
:100EC000D21D22F0070191B0D1E90001CDE90A015C
:100ED00002F0F2FD02460B98C00F01D02D2007E072
:100EE0002068810701D52B2002E0202101EAC00003
:100EF000032A099001D0072A05DB03464146204614
:100F000000F01EFB0BE12078800601D5E06900E0CF
:100F10000620B8F1650F814606D0B8F1660F18D0EB
:100F2000B8F1670F70D131E00020B9F1110F0090D6
:100F300001DB112301E009F101030AAA01A90CA8B0
:100F4000FFF7E2FEDDE90C70002609F1010583469A
:100F500047E001204B4600904FF000470AAA01A944
:100F60000CA8FFF7D1FEDDE90DB00C995D46002617
:100F700010B909F101000D18B9EB050003D4C0F157
:100F8000FF3609F10105A5EB09002BE0B9F1010FCE
:100F900001DA4FF001090020B9F1110F0090484625
:100FA00001DD112300E003460AAA01A90CA8FFF7FE
:100FB000ABFEDDE90C704D46002683462078000725
:100FC0000AD4AB4500DA5D4601A8012D04DD4119C4
:100FD00011F8011C302907D04F4502DA17F1040F30
:100FE00004DA012082460FE06D1EEEE7002F02DCDE
:100FF000ED1B3E4403E0781CA84200DD7D1CB81BBD
:1010000000F1010A4FF000472078000703D4AA45F9
:1010100001DB4FF0FF3A0021B7F1004F0DF143081B
:101020008DF8431024D002202B23002F01DA7F42B9
:101030002D230A21021EA0F1010000DC5FB197FB05
:10104000F1FC97FBF1F201FB1C7C17460CF1300C14
:1010500008F801CDEEE7A8F1010003702188090529
:1010600001D5452100E06521A0F1010800F8011C2F
:1010700009980FA9A1EB0807FF1D00B10120411934
:1010800001EBEA70A1693844081A401EA06120787B
:10109000C00602D42046FFF78CFA099828B1D4E99B
:1010A00001219047206A401C20622078C00622D58A
:1010B0002046FFF77EFA1EE0002E04DBB34502DD7A
:1010C00001A8805D00E03020D4E901219047206A2A
:1010D000401C2062761CAAF101005FEA000A0AD1D6
:1010E00000F02AFAC0680168405CD4E90121904709
:1010F000206A401C2062281EA5F10105DCDC07E007
:10110000D4E9012118F8010B9047206A401C2062A5
:10111000381EA7F10107F3DC2046FFF760FA032031
:1011200011B041E630BCBDE8C08F00002DE9F04FA2
:1011300004460D46D21D22F0070089B0D0E9009781
:101140004846394602F0B8FC0246F80F01D02D237C
:1011500007E02068810701D52B2302E0202101EA66
:10116000C0038DF820300BB1012000E00020032ADD
:10117000824601D0072A04DB2946204600F0E0F928
:101180003FE12078800601D40D2500E0E569C7F332
:101190000A560D2D49DA00214FEA175B08464FF039
:1011A0000000002F00F4400007DA00EB80004FF44D
:1011B000400100EBD07001EA60008115012901DDDA
:1011C0004FF0FF3100224FEA850CBCF1180F06D317
:1011D0001346ACF118004FF08052C24003E04FF4C8
:1011E000801323FA0CF30CF10C0CBCF1200F04D388
:1011F000ACF1200C09FA0CF001E007FA0CF0002920
:101200004FF0004801DD18B90FE00ED140450CD376
:1012100019EB02095F4121B9404502D19F4329EAF8
:101220000209BBEB175F00D0761C2088000502D5B1
:101230007B48784402E07A487844193808AA302379
:1012400002F80A30037C0AF10101002E0AF1020AB9
:1012500053546A4602DC4FF0300101E04FF0310197
:101260004FF001088DF8001002D0A6F2FF3603E01F
:1012700059EA470100D06B4E002D02DC21780907A6
:1012800004D54FF002082E218DF80110C44600212C
:101290000BE0C7F303433F01C35C491C6D1E02F81A
:1012A0000830052908F1010801DA002DF1DC0021E0
:1012B0000CE000EB1973491C1B786D1E082902F81D
:1012C00008304FEA091908F1010801DA002DF0DCB5
:1012D00021688B0602D516E0A8F10108E04505DD7E
:1012E00002EB080313F8013C302BF5D0B8F1000FE6
:1012F00009DD02EB080313F8013C2E2B03D109078B
:1013000001D4A8F10108002D05DD3E2102F80810E6
:101310006D1E08F10108407C002E02F8080008F15B
:10132000010804DA2D20764202F8080002E02B20A2
:1013300002F808000A214FF47A70864208F1010889
:101340000BDB96FBF0F3303302F8083096FBF0F33A
:1013500008F1010800FB136601E0642E0CDB642039
:1013600096FBF0F3303302F8083096FBF0F308F107
:10137000010800FB136601E00A2E06DB96FBF1F084
:10138000303002F8080008F1010896FBF1F001FB8B
:101390001060303002F80800A16908F1010808EB7C
:1013A000050202EB0A00081AA0612078C00602D4E8
:1013B0002046FFF7FEF8216A08AE01EB0A00206222
:1013C00004E0D4E9012116F8010B9047BAF1010AB3
:1013D000F7D22078C00602D52046FFF7EAF86E461D
:1013E00009E016F8010B3E280FD0D4E901219047FF
:1013F000206A401C2062B8F10108F2D22046FFF7B3
:10140000EEF809B0032000F00FB8206A28442062EB
:1014100003E0D4E90121302090476D1EEBD3F8E7BB
:10142000EA34000002FCFFFF30BCBDE8C08F10B5FD
:10143000436913B1AFF3008001E0FFF7F3F8012037
:1014400010BD127800F124010A7000224A700122B6
:10145000EDE711684FF0FF32E9E710B5436913B1CA
:10146000AFF3008001E0FFF777F9012010BD12888B
:1014700000F1240182840022C2840122EDE7116878
:101480004FF0FF32E9E72DE9F04116460C460546DC
:1014900000F04AF8036893F80101012807D0FF2CF7
:1014A00012D8185D80B101202C70BDE8F081D3F80E
:1014B00007013246214603F20713C7182846BC46E7
:1014C000BDE8F041002360474FF0FF30EDE710B575
:1014D00000F0F6F8BDE8104000F0EDB87047754632
:1014E000FFF756FBAE4605006946534620F007005D
:1014F000854618B020B5FEF731FFBDE820404FF01B
:1015000000064FF000074FF000084FF0000BAC460C
:10151000ACE8C009ACE8C009ACE8C009ACE8C00957
:1015200021F007018D46704710B500F005F8001D49
:1015300010BD00BFF12500000048704728000020C2
:101540002DE9F0411F46044603260168072A01F4ED
:10155000006004DB08B116A505E016A503E008B19C
:1015600015A500E015A521F010002060A069C01E9F
:10157000A0610FB1401EA0612046FFF71AF84FB1DD
:10158000D4E9012138469047206A401C2062C01CE3
:10159000206206E0206AFAE7D4E9012115F8010B80
:1015A0009047761EF8D22046FFF719F8BDE8F08183
:1015B0004E414E006E616E00494E4600696E6600F7
:1015C0002DE9F047814616468AB0354878440DC863
:1015D0008DE80D0032487844801C03AC0DC884E8C7
:1015E0000D0041F69B300844372190FBF1F290FB4F
:1015F000F1F5A5F1800501FB12041B3C02D5644204
:10160000012000E00020DFF898A080460027FA447F
:10161000AAF1BE0A0EE0E0070AD03246684607EBA0
:10162000470101230AEB810102F00FF98DE8070061
:1016300064107F1C002CEED1194F7F44AE3F19E09F
:10164000E80715D007EB04100DF1180A90E80E001A
:101650008AE80E00C068F04201D19819089032461D
:10166000012306A903A802F0F0F803AB83E8070002
:101670006D10641C002DE3D14FF001033246694622
:10168000B8F1000F03A802D002F0CAF801E002F09E
:10169000DCF8C9E90001C9F808200AB0BDE8F08704
:1016A000E031000010B50446AFF300802046BDE8ED
:1016B0001040FEF722BE002801D000F029B8704784
:1016C00010B5012805D0002103A000F027F8012063
:1016D00010BD09A1F8E7000053494752544D454D4C
:1016E0003A204F7574206F662068656170206D65C3
:1016F0006D6F7279000000003A2048656170206DBE
:10170000656D6F727920636F7272757074656400B5
:1017100001491820ABBEFEE72600020070B5054661
:101720000C460A2000E06D1C00F050F835B1287816
:101730000028F8D102E0641C00F048F814B12078C9
:101740000028F8D1BDE870400A2000F03FB8000042
:1017500030B44FF0013C50F8042B51F8043BCCFA64
:1017600052F4D51A20D1FCB950F8042B51F8043B9F
:10177000CCFA52F4D51A17D1B4B950F8042B51F859
:10178000043BCCFA52F4D51A0ED16CB950F8042BA4
:1017900051F8043BCCFA52F4D51A05D1002CDAD01A
:1017A00030BC4FF00000704729BAB1FA81F111F056
:1017B0001801D1F120008440F2D1CA40CB4012F090
:1017C000FF0213F0FF0330BCD01A704708B569461A
:1017D0008DF800000320ABBE08BD000080B50920D5
:1017E00000F0EEFB40F21441C4F20101086840F041
:1017F0000800086080BD000080B50A2000F0E0FB12
:1018000040F21441C4F20101086840F01000086081
:1018100080BD000080B588B08C46014601910C98CF
:101820000B98DDF828E0CDF81CC0069205938DF8E2
:101830001300002048610861C86088604860086043
:1018400006980390079802380146029103283ED873
:101850000299DFE801F0020F1E2D01994FF0804040
:10186000486041F25801C4F20201086840F00100EA
:1018700008602EE0019940F20040C4F20000486088
:1018800041F25801C4F20201086840F00200086009
:101890001FE0019940F60000C4F20000486041F2E8
:1018A0005801C4F20201086840F00400086010E02A
:1018B000019940F60040C4F20000486041F258012E
:1018C000C4F20201086840F00800086001E0FFE788
:1018D000FEE79DF8130001460091442809D0FFE778
:1018E000009855280AD1FFE7039820F010000390D4
:1018F00004E0039840F010000390FFE7019903987B
:1019000020F0080003900C9A039840EAC20003906C
:1019100005984A689062059888600A984A68D0627B
:1019200003984A68106042F2B170C0F60000C860C7
:1019300042F2E560C0F60000086143F2BD00C0F667
:101940000000486108B080BD80B588B0079006915E
:1019500005920493AC20FEF71DFD039007980399B0
:101960000860069803994860039942F26970C0F6CE
:101970000000C1F88C00039942F6B500C0F60000E3
:10198000C1F89000039942F22D70C0F60000C1F832
:101990009400039942F29970C0F60000C1F89800D3
:1019A000039943F22120C0F60000C1F89C0003997E
:1019B00042F6C940C0F60000C1F8A000039943F206
:1019C0005D00C0F60000C1F8A400039943F249008D
:1019D000C0F60000C1F8A80005980399086100202E
:1019E0000290FFE7029801281EDCFFE7002001902B
:1019F000FFE70198272812DCFFE70498029901EB22
:101A0000810300EBC300019A805C039901EBC301E1
:101A100011440875FFE7019801300190E9E7FFE7FD
:101A2000029801300290DDE700F05AFB0398D0F8ED
:101A30008C30002211469847039808B080BD000002
:101A400083B00290019100920298006901990122ED
:101A50008A40104020FA01F10098401AB0FA80F054
:101A6000400903B07047000080B586B00090099827
:101A7000DDF820C08DF81710049203938DF80B0049
:101A80009DF81700413801460191032862D8019959
:101A9000DFE801F00218304800994FF090400860EC
:101AA00041F24C00C4F202000068002048B9FFE790
:101AB00041F24C01C4F20201086840F001000860E4
:101AC000FFE749E0009940F20040C4F600000860DA
:101AD00041F24C00C4F202000068002048B9FFE760
:101AE00041F24C01C4F20201086840F002000860B3
:101AF000FFE731E0009940F60000C4F600000860FE
:101B000041F24C00C4F202000068002048B9FFE72F
:101B100041F24C01C4F20201086840F00400086080
:101B2000FFE719E0009940F60040C4F600000860A5
:101B300041F24C00C4F202000068002048B9FFE7FF
:101B400041F24C01C4F20201086840F0080008604C
:101B5000FFE701E0FFE7FEE741F24C00C4F20200BC
:101B60000068002048B9FFE741F24C01C4F20201CD
:101B7000086840F004000860FFE700989DF80B102B
:101B80004171049981609DF81710017143F2ED11C4
:101B9000C0F60001C16142F2FD61C0F600010162C0
:101BA00043F2F521C0F60001816241F62541C0F6FD
:101BB00000014162416A884700990020C8600861BD
:101BC000039848610898886142F2A130C0F600008D
:101BD000C86206B080BD000080B582B0019000915F
:101BE00001984EF21401CEF2000108604EF210018D
:101BF000CEF20001086840F001000860009B086810
:101C000040F00202012B08BF10460860086840F04F
:101C1000040008604FF0FF30002100F01DFA02B010
:101C200080BD000082B001900198407941380146A2
:101C300000910E284AD80099DFE801F03D48484855
:101C4000482848480848484848481300019801680F
:101C500080684200032000FA02F20868904308609E
:101C600034E00198016880684200032000FA02F223
:101C7000086890430860019801688068420001206C
:101C800000FA02F20868104308601FE0019801683A
:101C900080684200032000FA02F20868904308605E
:101CA0000198016880684200022000FA02F2086888
:101CB000104308600AE00198016880684200032030
:101CC00000FA02F2086810430860FFE702B07047AC
:101CD00080B582B08DF807001020FEF75BFB009006
:101CE0009DF8070000990870009943F2D510C0F6DE
:101CF00000008860009943F22D10C0F60000486093
:101D0000009942F6E110C0F60000C860009802B0E9
:101D100080BD000083B002900191009201990120E2
:101D200000FA01F2029948699043486100980199CC
:101D300000FA01F2029948691043486103B0704704
:101D400040F20411C2F20001012008607047000057
:101D500080B590B01020C4F200000068C00740B108
:101D6000FFE71021C4F20001086820F001000860BC
:101D70001BE11020C4F2000000688007002840F139
:101D80000281FFE740F2FC00C2F20000006850B19F
:101D9000FFE73420C4F20000006840F21411C2F2E0
:101DA00000010860E7E040F20011C2F2000108689B
:101DB000013008603420C4F20000016840F21010C5
:101DC000C2F200000160006840F21411C2F200018A
:101DD0000968884263D3FFE740F21010C2F20000A6
:101DE000006840F21411C2F200010968401A02F0C2
:101DF00044F941EC100B8DED060B40F29C00C2F251
:101E00000000089000684068C06A02F036F99DED55
:101E1000061B41EC100B51EC110B53EC102B01F095
:101E2000C9FE0246089809920A46099942EC101B1D
:101E30008DED0A0B0068806801304DF68361C4F2B5
:101E40001B3150FB01F1081500EBD17002F0FEF8D8
:101E50009DED0A0B41EC110B40F20810C2F200009C
:101E60000E9090ED002B8DED0C2B53EC112B51ECC3
:101E7000100B02F08DF99DED0C0B41EC110B51ECA8
:101E8000110B53EC102B01F095FE02460E980F92A9
:101E90000A460F9942EC101B80ED000B49E040F21E
:101EA0001410C2F20000006840F21011C2F20001EA
:101EB0000968401A02F0E1F841EC100B8DED000BBF
:101EC00040F29C00C2F200000068806801304DF6CC
:101ED0008361C4F21B3150FB01F1081500EBD17096
:101EE00002F0B4F89DED000B41EC110B40F208102C
:101EF000C2F20000049090ED002B8DED022B53EC0C
:101F0000112B51EC100B02F043F99DED020B41EC4B
:101F1000110B51EC110B53EC102B01F04BFE024650
:101F2000049805920A46059942EC101B80ED000BBF
:101F3000FFE740F21010C2F20000006840F21411F6
:101F4000C2F20001086040F20810C2F2000090EDF9
:101F5000000B9FED191B53EC112B51EC100B02F0F1
:101F600051FB38B9FFE740F2FC01C2F20001012049
:101F70000860FFE7FFE71021C4F20001086820F0C5
:101F80000200086010E01020C4F200000068400762
:101F9000002808D5FFE71021C4F20001086820F0EE
:101FA00004000860FFE7FFE7FFE71C2000F008F8E7
:101FB00010B080BD00BF00BF000000000000E03F87
:101FC00081B08DF803009DF9030000280ED4FFE7CF
:101FD0009DF9031001F01F02012090404A094EF2C2
:101FE0008021CEF2000141F82200FFE701B07047E6
:101FF00081B08DF803009DF90300002812D4FFE79B
:102000009DF9031001F01F02012090404A094EF291
:102010008011CEF2000141F82200BFF34F8FBFF3D1
:102020006F8FFFE701B0704781B08DF803009DF915
:10203000030000280ED4FFE79DF9031001F01F02F2
:10204000012090404A094EF20011CEF2000141F801
:102050002200FFE701B0704782B08DF807000091C1
:102060009DF9070000280AD4FFE7009800019DF9B8
:1020700007104EF20042CEF2000288540BE00098A6
:1020800000019DF8071001F00F014EF61452CEF238
:1020900000028854FFE702B07047000082B08DF85C
:1020A000070000919DF9070000280AD4FFE7009877
:1020B00000019DF907104EF20042CEF20002885452
:1020C0000BE0009800019DF8071001F00F014EF69B
:1020D0001452CEF200028854FFE702B070470000AD
:1020E00080B582B00520019000F02EFD01990C20F2
:1020F00000F0A2FC02B080BDB0B5C4B069460020BB
:1021000088604420486042F2107008603EA80321B5
:10211000012240F69F73FFF77DFB3E983F9A409B5C
:10212000DDF804C1DDF808E1439C40F2B401C2F2DD
:1021300000010B914C61C1F810E0C1F80CC08B603C
:102140004A60086044F2C871C0F600012AA80A90EB
:102150005022FEF795F90A9B0B9805210A22FFF7FA
:10216000F3FB40F26801C2F20001086041F24C0149
:10217000C4F20201086840F4005008600820C5F26B
:10218000040000688000002808D5FFE70821C5F298
:102190000401086820F000500860FFE70821C5F23C
:1021A00004010891086840F08050086040F2B400D3
:1021B000C2F20000C268012107919FED780A9047A2
:1021C000079B684641214160002202601EA8FFF77C
:1021D0004BFC08991E9A1F9BDDF880C0DDF884E057
:1021E000229C239D40F2CC00C2F200000990456180
:1021F0000461C0F80CE0C0F808C043600260249A93
:10220000259BDDF898C0DDF89CE0289C299DC562DF
:102210008462C0F824E0C0F820C0C3618261026813
:10222000D06A40F00100D0623022C5F2040210688A
:1022300040F4A070106040F20832C5F20402106849
:1022400020F00F001060106820F44030106010681B
:1022500040F4803010600C22C5F20402106840F097
:10226000100010601422C5F20402106840F400400F
:1022700010600022C5F20402106840F001001060F6
:10228000086840F001000860FFE70020C5F2040084
:102290000068C00708B9FFE7F7E7694646204860CD
:1022A00001200690086012A8412105220023059311
:1022B000FFF7DAFB069B1298139ADDF850C0DDF8A1
:1022C00054E0169C179D40F26C01C2F200014D6172
:1022D0000C61C1F80CE0C1F808C04A6008601898A9
:1022E000199ADDF868C0DDF86CE01C9C1D9DCD627C
:1022F0008C62C1F824E0C1F820C0CA618861D1F8BD
:102300002CC088680979EE4604220392CEF800209A
:102310001722E0470598069B69468860442048607C
:102320006FF0010008600CA802211A46FFF772FA4C
:102330000C980D9A0E9BDDF83CC0DDF840E0119C36
:1023400040F29C01C2F2000104914C61C1F810E01E
:10235000C1F80CC08B604A6008601C20FFF7B8FC15
:1023600003990246049802600068826890470498C6
:102370000068426853219047049801684068C96822
:102380008847049B0599069A58685B69984706999F
:1023900040F69F70FFF720FC44B0B0BD6F12833A47
:1023A00080B588B0DDF828C007908DF81B108DF837
:1023B0001A20059341F26000C4F202000068C007D1
:1023C00048B9FFE741F26001C4F20201086840F039
:1023D00001000860FFE71820FDF7DCFF0490059876
:1023E000C0B1FFE79DF81B0001460291412805D0CE
:1023F000FFE702984238062808D308E0079A202110
:10240000C4F60001012041F8220002E0FFE7FFE7E7
:10241000FEE757E00798C11700EB917121F0030127
:10242000401A800003909DF81A00049908700399DF
:102430000720884004994860049900208860079923
:10244000012000FA01F1049AD160079988400499AB
:1024500008619DF81B0041380146019106282ED8DD
:102460000199DFE801F004080E141A2026000499EF
:102470000020886025E00399012088400499886045
:102480001FE00399022088400499886019E00399AD
:10249000032088400499886013E003990420884051
:1024A000049988600DE003990520884004998860AC
:1024B00007E00399062088400499886001E0FFE75F
:1024C000FEE7FFE7049943F24910C0F600004861B7
:1024D0000498436907990A9A98470498FDF789FF79
:1024E00008B080BD80B586B0059004910392059830
:1024F0003C3001900498006801F0A8FD41EC100BFD
:10250000039890ED001B53EC112B51EC100B01F0D4
:1025100005FC0246019802920A46029942EC101B01
:1025200000F02EF8049900200860039948600860C4
:1025300006B080BD80B586B00590049103920598E1
:1025400014300190039890ED000A049890ED001A61
:10255000B8EEC11A80EE010A10EE100A02F004F87B
:102560000246019802920A46029942EC101B00F0C2
:102570001FF80399002008600499086006B080BD28
:1025800080B586B005908DED020B05989DED020B90
:10259000694681ED000B44F65A02C0F6000228217C
:1025A000FDF74EFF0599002081F8270006B080BD99
:1025B00080B586B005908DED020B05989DED020B60
:1025C000694681ED000B44F64802C0F6000228215E
:1025D000FDF736FF0599002081F8270006B080BD81
:1025E00080B584B0039002910398D0F8A000804792
:1025F00028B9FFE702980078032804D1FFE7029981
:102600000020087004E00299087801300870FFE7A4
:10261000029800780146019103285ED80199DFE80D
:1026200001F00207173F0398D0F89C00804756E05E
:1026300003988168C368D0F8A42001EB810100EB06
:10264000C1011944097D002918BF0121904746E0C6
:1026500003988268C16802EB820200EBC200084462
:10266000007DB0B9FFE703988068009020B1FFE7D4
:102670000098012806D00BE00398D0F8A810C020DD
:10268000884705E00398D0F8A81080208847FFE726
:1026900005E00398D0F8A42002219047FFE71EE050
:1026A00003988268C16802EB820200EBC200084412
:1026B000007D68B9FFE703990020C8600399886826
:1026C000013000EBD07222F00102801A8860FFE72F
:1026D0000399C8680130C86001E0FFE7FEE704B075
:1026E00080BD000083B00290019100920298009991
:1026F000019A9140084003B07047000080B582B055
:10270000019001984079492801D0FFE70BE0019939
:10271000C8680861019A106891689269FFF790F99A
:102720000199C860FFE702B080BD000080B582B0AB
:102730000190019908680969C26849009FED090A7A
:102740008DED000A904701984168012000F074F96E
:102750009DED000A01980068C2680221904702B00E
:1027600080BD00BF6F12833A80B584B003900291A0
:1027700001920299019800EB81108030009000983E
:102780000399496800F058F9029803998860019804
:102790000399C86004B080BD80B582B001900091FB
:1027A00000980199496800F047F902B080BD000027
:1027B00080B58AB0099008918DED070A09984068A4
:1027C000406A069006980590012004900998406898
:1027D000806A411C40F60010C0F23D00B0FBF1F0F1
:1027E000039008980399484300EE100AB8EEC00A17
:1027F0009DED071A20EE010ABCEEC00A8DED020A1B
:1028000000200190FFE701980299884246D2FFE735
:1028100009984068406A0590099948680B69006802
:1028200004210122984700110146009120B1FFE7E1
:10283000009801281AD02EE00598069988420DDAF2
:10284000FFE706980599401A09994968C96A08443A
:102850000699411A01980844019006E005980699E6
:10286000411A019808440190FFE714E00598069981
:10287000884208DDFFE706990598081A0144019887
:102880000844019006E006980599411A0198084409
:102890000190FFE7FFE705980690B4E701980299D9
:1028A000884203D2FFE700200490FFE704980AB0B3
:1028B00080BD000080B586B0059004910498007832
:1028C0008DF80F00002002900190FFE79DF80F00A7
:1028D000B8B3FFE704980199405C8DF80F009DF8AC
:1028E0000F000A2818D1FFE70298013002900598DE
:1028F000D0F88C3002990022009298470098049AF0
:102900000199114449788DF80F10059A91680131A9
:1029100091600599C86010E09DF80F00059949681D
:1029200000F0DAF90599C8680130C8600499019887
:10293000084440788DF80F00FFE7019801300190BE
:10294000C4E706B080BD000041F25801C4F20201A4
:10295000086840F40010086045F20041C4F200012C
:10296000086820F0010008600020086045F210426D
:10297000C4F2000240F61370C0F242001060086812
:102980000860086840F001000860704741F24C019F
:10299000C4F20201086840F00200086040F22041E1
:1029A000C4F60001086840F08840086040F2004129
:1029B000C4F60001086820F4A040086040F2044119
:1029C000C4F60001086840F0C000086040F2084109
:1029D000C4F60001086840F4A04008607047000099
:1029E00081B000900099886920F003008861009907
:1029F000886940F0010088610099886920F0F00042
:102A000088610099886920F00C0088610099086A43
:102A100020F00B0008620099086A40F0010008628B
:102A20000099C86820F00200C8600099C86840F0AA
:102A30000200C86001B0704780B58AB00890079165
:102A400000200590089806900798019001980528A5
:102A500004DCFFE70198002803DCFFE70520019074
:102A6000FFE7FFE7019808B9FFE761E00198013847
:102A70000190FFE70020049045F21C41C4F20001E0
:102A80001020086045F20441C4F200010868039078
:102A9000039820F47F00039003980022C0F20222E2
:102AA00010430390039840F078000390039840F49B
:102AB00000500390039808604FF6E77000F0D4FBD5
:102AC00045F21840C4F200000068C006002803D593
:102AD000FFE70120049027E000200290FFE7029822
:102AE000012820DCFFE700200490029905A850F897
:102AF000210045F22841C4F2000108604FF6E7705A
:102B000000F0B2FB45F21840C4F200000068C006B5
:102B1000002803D5FFE701200490FFE7FFE70298B4
:102B200001300290DBE7FFE7049800289AD1FFE725
:102B3000019818B9FFE70120099002E000200990F0
:102B4000FFE709980AB080BD80B594B0129044F6B2
:102B5000300EC0F6000EDEF80000DEF80410DEF8DD
:102B60000820DEF80C30DEF810C0DEF814E0CDF8F6
:102B700044E0CDF840C00F930E920D910C9044F6B6
:102B8000180EC0F6000EDEF80000DEF80410DEF8C5
:102B90000820DEF80C30DEF810C0DEF814E0CDF8C6
:102BA0002CE0CDF828C009930892079106900620E2
:102BB0000390129801900198052804DCFFE7019822
:102BC000002803DCFFE705200190FFE700F06EFB23
:102BD000FFF7DCFEFFF7B8FE4DF6F00000F044FB17
:102BE000FFE7019808B9FFE761E00198013801901B
:102BF000FFE70020049045F21C41C4F200011020C0
:102C0000086045F20441C4F200010868029002988D
:102C100020F47F00029002980022C0F206221043A6
:102C20000290029840F078000290029840F4005020
:102C30000290029A0868104308604FF6E77000F0AF
:102C400013FB45F21840C4F200000068C0060028DB
:102C500003D5FFE70120049025E000200590FFE761
:102C60000598039988421DDAFFE705990CA850F8EA
:102C7000210045F22841C4F200010860059800F0E7
:102C8000F3FA45F21840C4F200000068C0060028BC
:102C900003D5FFE70120049004E0FFE70598013029
:102CA0000590DDE7FFE7049800289AD1FFE7019837
:102CB00018B9FFE70120139002E000201390FFE70E
:102CC000139814B080BD000045F21840C4F2000013
:102CD0000068C0F30010704780B58AB00890079173
:102CE00040200590089806900798019001980528C3
:102CF00004DCFFE70198002803DCFFE705200190D2
:102D0000FFE7FFE7019808B9FFE761E001980138A4
:102D10000190FFE70020049045F21C41C4F200013D
:102D20001020086045F20441C4F2000108680390D5
:102D3000039820F47F00039003980022C0F202223F
:102D400010430390039840F078000390039840F4F8
:102D500000500390039808604FF6E77000F084FA83
:102D600045F21840C4F200000068C006002803D5F0
:102D7000FFE70120049027E000200290FFE702987F
:102D8000012820DCFFE700200490029905A850F8F4
:102D9000210045F22841C4F2000108604FF6E770B7
:102DA00000F062FA45F21840C4F200000068C00664
:102DB000002803D5FFE701200490FFE7FFE7029812
:102DC00001300290DBE7FFE7049800289AD1FFE783
:102DD000019818B9FFE70120099002E0002009904E
:102DE000FFE709980AB080BD80B58EB0002004903E
:102DF0000D90FFF781F904984FF4C8710C914FF4CE
:102E0000FA710B914FF416710A910990089007908E
:102E1000069003208DF81700FFE7FFE740F204104B
:102E2000C2F20000006808B9FFE7F7E7099801302F
:102E300042F6E161884203D3FFE70020039003E0FC
:102E4000099801300390FFE7039809900C980999BD
:102E5000401A08900B980999401A07900A98099906
:102E6000401A069040F21C10C2F2000040F2181105
:102E7000C2F2000100F094F840F20000C2F200003B
:102E8000006878B3FFE70898079988422AD8FFE7D7
:102E900040F26800C2F20000006840F21C11C2F269
:102EA000000140F21812C2F20002FFF743FB0C9837
:102EB00000F5C87042F6E161884205D3FFE7089843
:102EC00000F5C870029004E00C9800F5C8700290FC
:102ED000FFE702980C9040F20001C2F200010120CD
:102EE000086054E040F2FC00C2F20000006878B3D1
:102EF000FFE70798069988422AD8FFE740F2680062
:102F0000C2F20000006840F20011C2F2000140F27B
:102F10000812C2F20002FFF7E5FA0B9800F5FA700A
:102F200042F6E161884205D3FFE7079800F5FA70A1
:102F3000019004E00B9800F5FA700190FFE701980A
:102F40000B9040F2FC01C2F20001002008601DE07D
:102F500040F26800C2F2000000680DF11701FFF7AF
:102F60003FFB0A9800F5167042F6E161884205D3EE
:102F7000FFE7069800F51670009004E00A9800F547
:102F800016700090FFE700980A90FFE7FFE740F215
:102F90000411C2F20001002008603EE700000000BA
:102FA00080B586B0059004910020C5F20400006849
:102FB0004007002840D5FFE74020C5F20400006824
:102FC00000EB400001F059F841EC100B9FED1C1B89
:102FD00053EC112B51EC100B00F0A0FE41EC100B48
:102FE0008DED000B04980390006801F0BDFA9DED93
:102FF000001B41EC100B53EC112B51EC100B00F0AB
:10300000D9FD41EC100B51EC100B00F0A1FD039920
:10301000086005990868013008600021C5F20401C4
:10302000086840F0040008600821C5F2040108683F
:1030300040F004000860FFE706B080BD00BF00BF9D
:103040000000000000E06F4081B00090009845F261
:103050002841C4F20001086001B0704783B00290BB
:1030600001910198009040B1FFE7009801280BD032
:10307000FFE7009802280ED01CE045F22841C4F278
:1030800000010020086017E045F22841C4F2000169
:103090004020086010E002988268C16802EB82025A
:1030A00000EBC2000844007D45F22841C4F2000153
:1030B000086001E0FFE7FEE703B0704783B00290CD
:1030C000019100920098019900FA01F202990868B2
:1030D000904308600098019900FA01F2029908688B
:1030E000104308600298006803B0704780B582B052
:1030F0008DF807008DF806109DF806000146009136
:10310000432809D0FFE7009853280AD1FFE79DF92B
:103110000700FEF789FF06E09DF90700FEF768FF4C
:1031200001E0FFE7FEE702B080BD000080B582B09D
:1031300001908DF80310019890F900009DF803109C
:10314000FFF7D4FF02B080BD80B584B00390029138
:103150000192039843680298C11700EB917020F028
:1031600003010822C4F2010288589843885003984A
:1031700083680298C11700EB917020F00301885812
:10318000184388500398C26840F20841C4F2010114
:103190000868904308600398C26840F20C41C4F28A
:1031A00001010868104308600398026940F2004179
:1031B000C4F20101086810430860039890F9000008
:1031C0000121FEF76BFF039890F90000FEF72CFF3A
:1031D00004B080BD80B582B001900091019890F953
:1031E00000000099FEF75AFF02B080BD80B582B0A2
:1031F000019000910199C868086100980199C86020
:10320000019840794F2801D0FFE706E0019908684E
:103210008968009AFEF77EFDFFE702B080BD0000DE
:1032200081B045F21C41C4F200011020086045F253
:103230000441C4F2000108680090009820F47F0067
:10324000009000980022C0F20222104300900098E3
:1032500040F078000090009840F4005000900098F2
:10326000086001B07047000081B0009041F2240175
:10327000C4F2000108684FF6FF729043009A1043B1
:10328000086041F20001C4F20001086840F001004A
:103290000860FFE741F20000C4F200000068C007C8
:1032A00008B1FFE7F6E701B07047000041F25801AE
:1032B000C4F20201086840F01000086041F2000109
:1032C000C4F200010820086041F22802C4F20002A2
:1032D0000F20106041F22402C4F2000210684FF681
:1032E000FE7363F30F001060086840F0010008608F
:1032F0007047000080B582B001900199C8680861EC
:103300000199C86880F00100C860019840794F2891
:1033100001D0FFE706E0019A10689168D268FEF7D5
:10332000F9FCFFE702B080BD5FEA400C08BF91F0F6
:10333000000F4FEA8C234FEAC12243EA51514FEA72
:103340001C5018BF00F5F0404FEA300018BF41F0A4
:1033500000415FEA6C5C00F02980BCF1FF3F08BFD0
:1033600040F080407047130C06BF12044FF0100C61
:103370004FF0000C130E04BF12020CF1080C130FD7
:1033800004BF12010CF1040C930F04BF92000CF166
:10339000020CD30F04BF52000CF1010C11464FF088
:1033A0000002A0F11F00A0EB0C00704711F0004FCD
:1033B00008BF704731F000413FF4D5AF0B0C06BF9A
:1033C00009044FF0100C4FF0000C0B0E04BF090263
:1033D0000CF1080C0B0F04BF09010CF1040C8B0F4E
:1033E00004BF89000CF1020CCB0F04BF49000CF1A3
:1033F000010CCCF1200322FA03F341EA030102FAA3
:103400000CF2A0EB0C0000F10100704723F07F47A5
:1034100020F07F4C80EA030000F00040ACEB070393
:1034200003F57C5303F1FF032DE9804909B44FEA0A
:10343000144324EA03484FEA154B25EA0B4E0FF2DA
:10344000042606EB13273E7803FB0667C7F5000743
:1034500007FB06F64FEAD64606F102064FEA543756
:1034600007FB066CCCF1005C4FEA1C472CEA074CCA
:103470000CFB06F507FB06F404EB15464FEA96161F
:1034800049085FEA320234BF00204FF000404FEAA3
:10349000D13706FB07FC4FEA1C4C0CFB0BF7D21B89
:1034A00003FB0CF761EB07010CFB0EF7B0EB0740D9
:1034B00072EB17420CFB08F734BFA2EB0742B2EBEA
:1034C000074261EB17414FEA0C444FEA910706FBB4
:1034D00007FC4FEA1C4C0CFB0BF7B0EBC74072EB40
:1034E000573203FB0CF734BFA2EBC742B2EBC74223
:1034F00061EB57310CFB0EF7B0EBC70072EB577264
:103500000CFB08F734BFA2EBC702B2EBC70261EBBA
:1035100057714FEA816141EA92114FEA826242EAB1
:1035200090124FEA806004EBCC04039F4FEAD1373E
:1035300006FB07FC4FEA1C4C0CFB0BF7D21B03FBF2
:103540000CF761EB07010CFB0EF7B0EB074072EBD9
:1035500017420CFB08F734BFA2EB0742B2EB07425D
:1035600061EB17414FEA8C5504EB9C244FEA91071D
:1035700006FB07FC4FEA1C4C0CFB0BF7B0EBC740FB
:1035800072EB573203FB0CF734BFA2EBC742B2EB2E
:10359000C74261EB57310CFB0EF7B0EBC70072EB83
:1035A00057720CFB08F734BFA2EBC702B2EBC7029D
:1035B00061EB57714FEA816141EA92114FEA8262F1
:1035C00042EA90124FEA806015EB4C2544F100046A
:1035D0004FEAD13706FB07FC4FEA1C4C0CFB0BF7FC
:1035E000D21B03FB0CF761EB07010CFB0EF7B0EBF2
:1035F000074072EB17420CFB08F734BFA2EB0742FF
:10360000B2EB074261EB17414FEA813141EA924147
:103610004FEA823242EA90424FEA80304FEA0C761B
:1036200015EB1C1544F1000448EA03434EEA0B482D
:103630004FF0000EB2EB080C71EB030724BF62469B
:1036400039464EEB0E0E4FF0000B00185241494127
:103650004BEB0B0BB2EB080C71EB03077BF1000B90
:1036600024BF624639464EEB0E0E4FF0000B001899
:10367000524149414BEB0B0BB2EB080C71EB0307CA
:103680007BF1000B24BF624639464EEB0E0E51EA29
:10369000020718BF46F0010616EB0E7655F1000240
:1036A00054F1000103D5BDE88901BDE80088BDE8FB
:1036B0008901BDE80048B619524141EB0101A3F16F
:1036C0000103704780807F7E7D7C7B7A7978777676
:1036D00076757473727171706F6E6E6D6C6C6B6AEF
:1036E0006A6968686766666564646363626161608D
:1036F000605F5F5E5E5D5D5C5C5B5B5A5A5959580A
:103700005857575656555555545453535252525173
:10371000515050504F4F4F4E4E4D4D4D4C4C4C4BC9
:103720004B4B4A4A4A494949484848474747474610
:10373000464645454544444444434343434242424C
:10374000424141419C46002B30D477002BD04FEAB8
:1037500037071CB503B44FF010004FF01001BAF159
:10376000000F06D0BCF1000FDCBF40F0080040F0B5
:1037700008014FF000000FBCBDE810400BF1010B39
:10378000BBF1010F08BF5FEA170722BF12F1010268
:1037900011F101014FF0004143F1000300F000403E
:1037A00043EA00007047F9D35708D0E746EA0646D7
:1037B0004FEA164613F1400F1FDD13F1200FDFBF54
:1037C00016430A46002120335B42BED0C3F12007D6
:1037D00046EA06464FEA164602FA07F746EA0706A1
:1037E00022FA03F2C3F1200701FA07F742EA0702BF
:1037F00021FA03F14FF00003A7E746EA020646EA82
:1038000006464FEA164646EA0106BCBF46EA0646A9
:10381000360C4FF000034FF000024FF0000194E728
:103820002DE9804C70B49A46934691E8380007C859
:1038300031EA400C48BF34EA430C03D5FFF7E6FDFC
:10384000FFF780FFF0BCBDE8008C2DE9804C70B420
:103850009A46934691E8380007C810F0804F08BF99
:1038600013F0804F03D100F005F8FFF76BFFF0BCB9
:10387000BDE8008C20F07F4723F07F4C80EA0300F6
:1038800000F0004007EB0C03A3F57C53A3F1FE030B
:1038900092F0000F00F0B38095F0000F00F07780F9
:1038A0002DE901494FEA114021EA00484FEA144648
:1038B00024EA064700FB06FC08FB06F607FB08F8AF
:1038C00018EB06484CEB164C00FB07F718EB0748C3
:1038D0004CEB17404FEA124B22EA0B4E4FEA1546CB
:1038E00025EA06470BFB06FC0EFB06F607FB0EFE61
:1038F0001EEB064E4CEB164C0BFB07F71EEB074E70
:103900004CEB174B18EB0B0840F1000018EB0E0BBB
:1039100058EB000840F100008F1A4FF000014FF003
:1039200000063CBFC943661B14BFB5EB040C002165
:103930003CBFC943F61B4FEA174427EA04454FEA48
:103940001C472CEA074C04FB076205FB07F70CFB3E
:1039500005F616EB074642EB174204FB0CFC16EB90
:103960000C4642EB1C421BEB060658EB020241419F
:103970004EEA8E0E46EA9E0601D5BDE80189B619CB
:10398000524141EB0101A3F10103BDE801894FEA76
:10399000144524EA05464FEA114721EA074C05FB86
:1039A00007F406FB07F70CFB06F111EB074144EBAC
:1039B000174405FB0CFC11EB0C4144EB1C444FEA93
:1039C000124722EA074C05FB07F206FB07F70CFB40
:1039D00006F616EB074642EB174205FB0CFC16EB0E
:1039E0000C4642EB1C456A1854F1000148BF704771
:1039F000B619524141EB0101A3F10103704795F063
:103A0000000F37D04FEA114221EA02464FEA14472D
:103A100024EA074C02FB07F106FB07F70CFB06F450
:103A200014EB074441EB174102FB0CFC14EB0C4474
:103A300041EB1C414FEA154725EA074C02FB07F50D
:103A400006FB07F70CFB06F616EB074645EB17459A
:103A500002FB0CFC16EB0C4645EB1C42121951F113
:103A6000000148BF7047B619524141EB0101A3F173
:103A7000010370474FEA144524EA05464FEA11470F
:103A800021EA074C05FB07F106FB07F70CFB06F2E2
:103A900012EB074241EB174105FB0CFC12EB0C4209
:103AA00051EB1C414FF0000648BF7047921841EBA4
:103AB0000101A3F10103704703B40198410000988C
:103AC00050EAC12018BF04204A0D18BF40F0010081
:103AD00040F2FF72B2EB515F08BF40F002000128D4
:103AE00008BF052002B0704730380A2801D20120F3
:103AF000704700207047000010B500290AD00878F0
:103B0000002807D005487844FDF722FE002801D0A0
:103B1000002010BD0248784410BD0000860D000052
:103B20007E0D000010B500290AD00878002807D0C3
:103B300005487844FDF70CFE002801D0002010BD98
:103B40000248784410BD0000760D00006E0D0000A4
:103B500021F0004201F00043A2F16052B2F5801F53
:103B600028BFD2F17F6C0BD95FEA001C43EAC20286
:103B700042EB507018BF704728BF20F0010070471B
:103B8000B2F5801FBCBF184670474FEA410C1CF5C8
:103B9000001F02D2084600F08FBD70B500F0A2FBF6
:103BA00000000089FFF7F6BF4FF00040A0F580004D
:103BB0007047000010B591EA030F48BF83F000433F
:103BC00000F1EC83841A71EB030C05D2121943EB5C
:103BD0000C03001B61EB0C014FEA1154A4EB135CC6
:103BE000DFF81CE11EEA430F18BF9EEA445F00F0B5
:103BF000748021EA045123EA0E0343F48013DCF1BC
:103C0000200E32D322FA0CFE10EB0E0023FA0CFE2B
:103C100041EB0E01CCF1200E03FA0EFE10EB0E006C
:103C2000CCF1200E51F10001B1F5801F32D201EB31
:103C3000045112FA0EF2BDE8104058BF7047401C04
:103C400038BF5FEA420218BF7047002814BF20F057
:103C5000010041F100014FEA410313F5001F38BF95
:103C60007047A1F1C04100F08BBB012A43EB030276
:103C7000ACF1200CDCF11F0E32BF4FF0000E23FA26
:103C80000CF310EB030041EB0451B4EB115FD0D007
:103C9000A1EB045101F58011490801EB04515FEAE1
:103CA00030000ED350F1000038BF12FA0EFE08D1DA
:103CB000BDE81040C9E7401C38BF5FEA4202CAD1E4
:103CC000C3E7BDE810404FEA410313F5001F38BFBA
:103CD0007047A1F1C04100F053BB9EEA445F08D099
:103CE00011EA5E0FBDE8104004BF01F00041002062
:103CF0007047BDE8104070B500F0F4FA64FBBE3EBA
:103D00000000E0FF491058BFC1F140415B1058BFAF
:103D1000C3F140438B42EFF3008070472DE9C0416F
:103D200030B4DFF8A8C23CEA111418BF3CEA1314FF
:103D300000F0F0801CEA111481EA030544EAD5740E
:103D400018BF1CEA131500F0CB80A4EB050404F1A6
:103D50007F7404F500344FF0004545EAC12145EA7F
:103D6000C32341EA505143EA52534FEAC0204FEA7D
:103D7000C222994208BF904200F0A0804FEA13652A
:103D80000FF24816765D4FEA134506FB05F7C7F1BB
:103D9000807706FB07F74FEAD737A7FB0368764221
:103DA000A7FB06CEC8F5803838BFA8F1010807FB8D
:103DB00008E6A6FB028C4FF0000EE6FB03CED8F11E
:103DC00000086FEA0C0C5CF1000C6FEA0E0E4EF16D
:103DD000004EA6FB0C584FF00007E6FB0E87A1FB38
:103DE00008C6A0FB07CE16EB0E064FF0000545F106
:103DF0000005E1FB076515F1E04E7EBFA4F58034B8
:103E00005FEA46066D4116F1800745F100054FEA6D
:103E1000172747EA05674FEA15254FEA0666A6F118
:103E2000DE46B6F1805F20D9384605EBC47124F038
:103E3000010C01EB0C11BCF1FE6F02D8F0BCBDE827
:103E4000008124425CBF01F5801E9EEAC47F02D43B
:103E5000F0BCBDE80081244200F13980A1F1C041ED
:103E6000F0BCBDE8004100F08BBA4FEAD02040EA38
:103E700041504FEAD1214FEAD22242EA43524FEA5F
:103E8000D323A7FB028607FB036605FB02661EEA37
:103E90000E0F58BFA6EB0056B6EB00564FEA520E77
:103EA0004EEAC37E18EB0E0E56EB530EBCD518EB44
:103EB00002085E417F1C55F10005B5E74FF48015FF
:103EC0004FF000074FF000064FF00008ACE701F19B
:103ED000C04101F000414FF00000F0BCBDE800819E
:103EE0000CEA131511EA0C1F00D00CE013EA0C1FAA
:103EF00000F025804FF0000081EA030101F000414D
:103F0000F0BCBDE80081F0BCBDE8004181EA0301DE
:103F100000F036BAF0BCBDE8004170B500F0E2F93F
:103F2000097EFC3E00F007B84FF0000081EA030173
:103F300001F00041704781EA030100F021BAF0BCB2
:103F4000BDE8004122494FF000007047FFFDFBF93A
:103F5000F7F5F4F2F0EEEDEBE9E8E6E4E3E1E0DEBC
:103F6000DDDBDAD8D7D5D4D3D1D0CFCDCCCBCAC82E
:103F7000C7C6C5C4C2C1C0BFBEBDBCBBBAB9B8B755
:103F8000B6B5B4B3B2B1B0AFAEADACABAAA9A8A848
:103F9000A7A6A5A4A3A3A2A1A09F9F9E9D9C9C9B16
:103FA0009A999998979796959594939392919190C1
:103FB0008F8F8E8E8D8C8C8B8B8A89898888878752
:103FC0008685858484838382828181800000FF07C7
:103FD0000000F87F51EA030C17D41CF5801F58BF6E
:103FE000BCF5801F00F10680994218BF704708BFDA
:103FF0009042704707D711F5801F58BF13F5801FF7
:1040000019D499427047894270471CF5801F08D522
:10401000BCF5801FF7D58B4218BF704708BF82429E
:1040200070474FF4001C1CEB410F38BF1CEB430FD3
:1040300001D28B42704770B500F054F992244900C8
:104040004FF000514FF08053FFF75CBE10F000427C
:1040500048BF4042B0FA80F310FA03F10AD0C3F12E
:104060001D0303F5806302EB03524FEA415002EB5C
:10407000D12170474FF000007047B0FA80F310FA7A
:1040800003F10AD0C3F11D0303F580634FEA035225
:104090004FEA415002EBD12170474FF000007047CA
:1040A00051EA030C17D41CF5801F58BFBCF5801FC4
:1040B00000F10680994218BF704708BF90427047D0
:1040C00007D711F5801F58BF13F5801F19D49942E7
:1040D0007047894270471CF5801F08D5BCF5801FCA
:1040E000F7D58B4218BF704708BF824270474FF424
:1040F000001C1CEB410F38BF1CEB430F01D28B425D
:10410000704770B500F0EEF8922449004FF08051EE
:104110004FF00053FFF7F6BD51EA030C17D41CF51E
:10412000801F58BFBCF5801F00F10680994218BF60
:10413000704708BF9042704707D711F5801F58BFDE
:1041400013F5801F19D499427047894270471CF5B6
:10415000801F08D5BCF5801FF7D58B4218BF70476C
:1041600008BF824270474FF4001C1CEB410F38BF60
:104170001CEB430F01D28B42704770B500F0B2F8D0
:10418000922449004FF000514FF08053FFF7BABD21
:1041900070B5DFF848C11CEA111E1EBF1CEA1315DA
:1041A0009EEA0C0F95EA0C0F00F06F8081EA030481
:1041B0004EEAD47EAE4421EA4C1123EA4C1341F47A
:1041C000801143F48013AEF17F7EA1FB024CA0FB73
:1041D0000365361955EB0C05A1FB034C4CF10003AC
:1041E000A0FB021C16EB0C06654153F100030942CB
:1041F00018BF46F0010613F4007F0BD14FEA0331DC
:104200004FEA053041EA155140EA165034036FF089
:1042100003020AE04FEAC3214FEAC52041EA5551A3
:1042200040EA5650F4026FF0020202EB2E4201EB1C
:10423000025585EACE710AD05FEA440C18BF24F01B
:10424000004450F1000041F1000120EAD47040F236
:10425000FE7C624500D270BDA84214BF4FF080447E
:104260004FF04044002E08BF0024BEF1806FA8BF6D
:10427000A1F1C041BDE8704080F2828001F1C041EF
:1042800001F000414FF0000070470CEA13159EEA60
:104290000C0F18BF95EA0C0F06D081EA030E4FF001
:1042A00000000EF0004170BD00F01CF88900013ED6
:1042B00000F007B800F009B84FEA430C5FEA5C5C15
:1042C00008D081EA030100F05BB84FEA410C5FEAD5
:1042D0005C5CF6D102494FF0000070470000FF0718
:1042E0000000F87F0EF1020E2EF0030E5EF8046B54
:1042F000364205D4012A43EB030515F5001F12D8F9
:10430000012841EB010C1CF5001F0CD80ED14FEA1F
:10431000D17C0CEB4C0C0CF1020C15F5001F08BF06
:104320004CEBD37C04E04FF0080C01E04FEAD37C67
:104330000CEB4C0526FA05F606F00706B6F1040C60
:1043400006D20EEB860CBDE870404CF0010C6047C5
:10435000DFE80CF0090B02024FF00041A1F500214B
:104360004FF0000070BD19461046012851EB0104C2
:1043700018BFD4F5001484BF002001F0004170BDC7
:104380000808A0F500114FEA3101704710B591EA15
:10439000030F48BF83F000433FF514AC841A71EB60
:1043A000030C07D28CF0004C121943EB0C03001BDA
:1043B00061EB0C014FEA1154A4EB135CDFF8A4E1AC
:1043C0001EEA430F18BF9EEA445F00F0B48021EA62
:1043D000045123EA6E035242C3EB6E0338BF5B1EE7
:1043E000DCF1200E25D322FA0CFE10EB0E0043FA6E
:1043F0000CFE41EB0E01CCF1200E03FA0EFE10EB89
:104400000E00CCF1200E51F1000129D401EB045132
:1044100012FA0EF2BDE8104058BF7047401C1CBF96
:10442000B2F1004F704700280CBF491C20F001007A
:10443000704712EB020E43EB030218BF4FF0010E60
:104440004EEA4202ACF1200CDCF11E0E56D943FAC2
:104450000CFE10EB0E00CCF11E0E51F1FF31D5D544
:104460000EF1010E12FA0EFE404141EB010101EB8B
:10447000445C5FEA5C5C10D901EB045110EBDE7028
:1044800038BFBEF1004FBDE8104018BF704700288C
:104490000CBF491C20F00100704734D24FEAD42CE5
:1044A00024F4006411F500111BD0B1FA81F20B3A2B
:1044B000A41AA41ED2F12003914030FA03F3194349
:1044C000904001EBCC7101EB0451002CBDE8104091
:1044D000A8BF704701F1C04101F000414FF000005A
:1044E0007047B0FA80F310FA03F102D1BDE8104032
:1044F0007047E41A173C4805C90AE2E701EB04518A
:10450000BDE81040704749104FEA300001EB0451FC
:10451000BDE8104002E04FF0000170474A0008BFBC
:104520000042F8D0B2F5001F28BF704701F00041EB
:104530004FF0000070479EEA445F07D011EA5E0F1B
:10454000BDE8104004BF002100207047BDE81040C6
:1045500070B5FFF7C7FE00BF40DFF63E104683F0A0
:10456000004170470000E0FF43004FEAD30C4FEAE0
:104570003C0C43401FBF40070CF1605113F0FE4F4D
:1045800070471CF0006F03D10CF000410020704711
:104590000CF0004343EA507040EACC0010B500F044
:1045A00038F800BF000000924FEA0001FFF7E8BEB4
:1045B0004FF00041A1F500214FF00000704710B509
:1045C000FFF708FD0CBF0120002010BD10B5FFF75C
:1045D00001FD14BF0120002010BD10B5FFF760FDE4
:1045E0008CBF0120002010BD10B5FFF759FD2CBF76
:1045F0000120002010BD10B5FFF78EFD94BF0120F3
:10460000002010BD10B5FFF787FD34BF012000204A
:1046100010BD0EF1020E2EF0030E5EF8044B244284
:1046200004D44FEA4102B2F17F4F11D84FEA400360
:10463000B3F17F4F0CD80ED14FEAD07C0CEB4C0C71
:104640000CF1020CB2F17F4F08BF4CEBD17C04E0BF
:104650004FF0080C01E04FEAD17C0CEB4C0324FA3C
:1046600003F404F00704B4F1040C06D20EEB840C3E
:10467000BDE810404CF0010C6047DFE80CF0070883
:1046800002024FF00040A0F5800010BD0846420035
:1046900018BFD2F1807288BF00F0004010BDF1EE6B
:1046A000100A4FF6FF71C0F2C03120EA010040F05D
:1046B0004070E1EE100A7047FF2141EAD050C0057A
:1046C0007047FCF7F9BBFCF731BD000000000000AB
:1046D000000000003031323334353637383941424A
:1046E0004344454640305800303132333435363754
:1046F0003839616263646566403078000400000800
:104700000000000000000002000100001030313203
:1047100033343536373839616263646566787000E2
:1047200030313233343536373839414243444546E7
:104730005850000002400000000000A000000000EF
:1047400005400000000000C8000000000C40000010
:104750000000409C00000000194000000020BCBE8A
:104760000000000034400000BFC91B8E00000004A0
:10477000B5400000504BCFD06607E2CF01000000EB
:104780006C4100003E8251AADFEEA7340100000018
:10479000D9420000DCB5A0E23A301F97FFFFFFFFCF
:1047A000B4450000FD25A0C8E9A3C14FFFFFFFFFEE
:1047B000FF3F00000000008000000000FF3F0000FD
:1047C0000000008000000000564F4C544147453A1D
:1047D0002030302E30305600000000000000000075
:1047E00000000000000000000000000000000000C9
:1047F000465245513A20303030302E3030487A0021
:1048000000000000000000000000000000000000A8
:104810000000000000000000E7FF0000E7FF0000CC
:10482000E7FF00003CF60000E7FF0000E7FF0000A4
:1048300000000000380000000F0000000100000030
:104840000600000010000000564F4C544147453A06
:10485000202530322E3266205600465245513A20ED
:104860002530342E3266487A00000000B84900082E
:104870000000002008000000EC010008C04900080A
:1048800008000020180900000C0200081C000000AD
:1048900043000000F8FFFFFF0C0000000E000000C6
:1048A0000F0000002E000000100100004300000077
:1048B000F8FFFFFF00404040404040404040414141
:1048C00041414140404040404040404040404040E5
:1048D000404040404005020202020202020202027F
:1048E000020202020220202020202020202020027C
:1048F000020202020202909090909090101010100C
:1049000010101010101010101010101010101010A7
:10491000020202020202888888888888080808083B
:104920000808080808080808080808080808080807
:10493000020202024000000000000000000000002F
:104940000000000000000000000000000000000067
:104950000000000000000000000000000000000057
:104960000000000000000000000000000000000047
:104970000000000000000000000000000000000037
:104980000000000000000000000000000000000027
:104990000000000000000000000000000000000017
:1049A0000000000000000000000000000000000007
:1049B00000000000000000000100000000000000F6
:040000050800018965
:00000001FF
