:020000040800F2
:10000000D00E002009030008470300084903000838
:100010004B0300084D0300084F03000800000000D8
:100020000000000000000000000000005103000874
:10003000530300080000000055030008592600087B
:100040005903000859030008590300085903000820
:100050005903000859030008590300085903000810
:1000600059030008391900085519000859030008F8
:1000700059030008590300085903000859030008F0
:1000800059030008590300085903000859030008E0
:10009000590300085903000859030008ED19000826
:1000A00059030008590300085903000859030008C0
:1000B0006926000859030008292800085903000888
:1000C00059030008590300085903000859030008A0
:1000D0005903000859030008590300085903000890
:1000E0005903000859030008590300085903000880
:1000F0005903000859030008590300085903000870
:10010000590300085903000859030008590300085F
:10011000590300085903000859030008590300084F
:10012000590300085903000859030008590300083F
:10013000590300085903000859030008590300082F
:10014000590300085903000859030008590300081F
:10015000590300085903000859030008590300080F
:1001600059030008590300085903000859030008FF
:100170005903000859030008590300080000000053
:10018000590300085903000800F002F800F0ACF829
:1001900014A696E8000CB244B344DA4501D100F04D
:1001A000A3F8BAE80F000FA696E83000A5EB040507
:1001B00004EB0607AAEB0704A7F101074FEA1515A0
:1001C0004FEA3414A4F10104AC4201D300F08CF8DE
:1001D00013F0010F18BFFB1A43F0010300F001F800
:1001E000DBE718473462000054620000103A24BF75
:1001F00078C878C1FAD8520724BF30C830C144BF8C
:1002000004680C6070470000704700000023002461
:1002100000250026103A28BF78C1FBD8520728BF16
:1002200030C148BF0B6070476E2900F0BB82702957
:1002300000F00384662905F07087652905F06D8755
:10024000672905F06A87612905F0698703681B0A39
:1002500028BF41F08001692900F06882642900F01C
:100260006582752900F062826F2900F091837829F8
:1002700000F0CF83E92900F02B83E42900F02883E4
:10028000F52900F02583EF2900F08E83F82900F08E
:10029000CE830368DB0928BF41F08001632901F0A8
:1002A000F880732901F0FD80E32901F00881F3292A
:1002B00001F00D81002070471FB505F01CFF9DE87F
:1002C000030000F09BF901F05FF904000020002119
:1002D00005F066F9401C60600020002105F04AF935
:1002E000E0601FBD10B510BD01F021F91146FFF708
:1002F000E3FF03F0B1FF01F0FDF903B4FFF7F2FFF4
:1003000003BC01F02DFA000017481849184B994218
:100310003CBF50F8042B41F8042BF8D3154B164979
:100320004FF000028B4238BF43F8042BFAD3DFF8BA
:100330004C00016841F470010160BFF34F8FBFF3BF
:100340006F8F0F480047FEE7FEE7FEE7FEE7FEE798
:10035000FEE7FEE7FEE7FEE7FEE7000009480A4980
:100360000A4A0B4B70470000686500080000002037
:100370005000002050000020D00E002088ED00E04A
:1003800089010008D0020020D00E0020D00A0020F1
:10039000D00A002070B5064600F014F9056806F191
:1003A0000B0020F00704B4429CBF002070BD2B4618
:1003B0006A68BAB11068A04210D304F108018842FB
:1003C0003CBF5068586007D35168101941601168EC
:1003D000091B016058601460101D70BD13465268FF
:1003E000002AE7D12146284600F0F4F80028DED1A3
:1003F00070BD70B50446051F00F0E4F80068002CDD
:1004000014BF446870BD002C18BFAC423CBF2046EE
:100410006468F8D301680A18AA4218BF456003D17E
:100420002A6805461144016028684119A1421CBF91
:100430006C6070BD6168696021680844286070BDA7
:100440000FB41CB50C0007AA009007D04142A1428E
:1004500002D32044401E01E04FF0FF30074B7B44A5
:1004600069460190069800F0B6F90021002C01D0F1
:10047000009A11701CBC5DF814FB00009B03000087
:10048000032A40F2308010F0030C00F0158011F8C0
:10049000013BBCF1020F624498BF11F801CB00F898
:1004A000013B38BF11F8013BA2F1040298BF00F8EC
:1004B00001CB38BF00F8013B11F0030300F02580A9
:1004C000083AC0F0088051F8043B083A51F804CBD0
:1004D000A0E80810F5E7121D5CBF51F8043B40F896
:1004E000043BAFF30080D20724BF11F8013B11F8A1
:1004F00001CB48BF11F8012B24BF00F8013B00F8E5
:1005000001CB48BF00F8012B704710B5203AC0F06E
:100510000B80B1E81850A0E81850B1E81850A0E8D6
:100520001850203ABFF4F5AF5FEA027C24BFB1E86F
:100530001850A0E8185044BF18C918C0BDE81040B2
:100540005FEA827C24BF51F8043B40F8043B08BFBB
:100550007047D20728BF31F8023B48BF11F8012B82
:1005600028BF20F8023B48BF00F8012B70474FF02E
:10057000000200B5134694469646203922BFA0E8F3
:100580000C50A0E80C50B1F12001BFF4F7AF0907FF
:1005900028BFA0E80C5048BF0CC05DF804EB8900F0
:1005A00028BF40F8042B08BF704748BF20F8022B33
:1005B00011F0804F18BF00F8012B7047704770474B
:1005C000704700000048704758000020704770478F
:1005D0007047704738B504460A4600206946AFF3B5
:1005E0000080002808BF38BD02460099204600F070
:1005F000FBFA012038BD012000F091BFF8B5AFF340
:100600000080054600200C460C2000BF0646A819B5
:10061000A0420DD9324669460020AFF300800700A2
:1006200008BF00F07CFF0098A04218BF0546C4191F
:10063000FFF7C8FF05600746F01D20F007004619C8
:10064000284600F00AF8B44208BFF8BDA21B3146A4
:100650003868BDE8F84000F0C7BA00210160416089
:1006600070470C20704770B5044685690068C10664
:1006700001D5302600E02026C00707D070BDD4E9A0
:10068000012130469047206A401C20626D1EF6D53D
:1006900070BD70B5044685690078C00707D170BD8C
:1006A000D4E9012120209047206A401C20626D1E61
:1006B000F6D570BD09684A0501D540B27047C90535
:1006C000FCD500B2704709684A0501D5C0B2704731
:1006D000C905FCD580B2704770B50C460546012AA5
:1006E00005D02878800600D5EA69002302E00123BE
:1006F00005E05B1C934202D2E05C0028F9D1A869B6
:10070000E618C01AA861286A184428622846FFF72C
:10071000AAFF04E0D5E9012114F8010B9047B44287
:10072000F8D32846FFF7B5FF70BD00002DE9F04172
:100730000646002410687529314616A510D0FFF72B
:10074000B9FF002802DA404213A507E031688A07A2
:1007500001D512A502E0490704D511A5012401E045
:10076000FFF7B1FF00210A2206F1240709E0B0FBE0
:10077000F2FCB0FBF2F302FB1C0030307854184658
:10078000491C0028F3D123462A463046BDE8F041F3
:1007900000F089BA000000002D0000002B000000CE
:1007A0002000000011680268006A530501D5087036
:1007B0000AE0D30501D5088006E0130603D5C21769
:1007C000C1E9000200E008600120704701694A1C8D
:1007D00002610878704700B58FB0CDE90131002182
:1007E000059105497944CDE903101146684600F0AA
:1007F0002FF90FB000BD0000E5FFFFFFD1E9002396
:100800009A4202D2531C0B60107070472DE9FF5FB3
:1008100015468A460446DFF8AC80F8440027D8E93C
:1008200000103E46CDE9001010E03AF816106A4676
:1008300002A800F050FE411C07D02178890603D59C
:10084000E269391891420DD80744761C2078800659
:1008500002D5E069B84205DDAE42E6DB3AF81600A3
:100860000028E2D1A069C01BA0612046FFF7FBFE73
:10087000D8E90010CDE90010002017E03AF8181070
:100880006A4602A800F027FEB0F1FF3F81460BD078
:1008900000250DF1080B05E0D4E901211BF8050046
:1008A00090476D1C4D45F7D308F10100B0428046DA
:1008B000E4DB206A384420622046FFF7EAFE00F0BD
:1008C00003B80000065900003FBCBDE8C09F00000F
:1008D0002DE9F0418046D21D22F007020025D2E921
:1008E0000002F52915A614D0011E72F1000106DAE6
:1008F0000023D0EB030063EB020211A608E0D8F856
:1009000000108B0701D50FA602E0490701D50EA6FE
:1009100001251146002408F1240704E000F07EF9C7
:1009200030323A55641C50EA0102F7D12B46324668
:1009300021464046BDE8F04100F0B5B90000000096
:100940002D0000002B0000002000000030B400212A
:1009500000F1240408E002F00705D208303542EA2D
:100960004372DB086554491C52EA0305F3D104685D
:10097000002310A2250708D504F020040C4304D05E
:10098000C46901230CA2641EC46130BC00F08BB9A1
:1009900010B5044621461068FFF795FE0246204632
:1009A000BDE810400023D1E7D21D22F00701D1E9B4
:1009B0000023CBE70000000030000000F0B40D463B
:1009C0000188090502D5214C7C4402E01F4C7C447F
:1009D0000E34002100F1240608E002F00F0712098E
:1009E000E75D42EA03721B097754491C52EA030788
:1009F000F3D102780023120704D5702D06D009B177
:100A0000022311342246F0BC00F04DB9012310340A
:100A1000F8E770B504460D4621461068FFF753FE0F
:100A2000024629462046BDE870400023C6E7D21D95
:100A300022F00703D3E90023C0E70368126843F0FC
:100A4000200303600823C3610023B7E76057000059
:100A50002DE9F05F894604464FF0000ADFF874B1D3
:100A6000FB44C0F820A02046E1688847002874D0E5
:100A7000252806D0D4E901219047206A401C206235
:100A8000F1E700265F462046E168884720280546B2
:100A900007DB312D05D2781910F8200C08B1064378
:100AA000F1E7B00701D526F00406C4F81CA0002722
:100AB000C4F818A02A2D09D0284604F053FD38B3F5
:100AC00004EB8708303DC8F8185019E059F8041BAA
:100AD000204604EB87029161E1688847012F0546B3
:100AE00018D1E069002820DA26F020061DE0D8F8A9
:100AF000180000EB800005EB40003038C8F8180003
:100B00002046E1688847054604F02CFD0028EED118
:100B1000012F0AD02E2D08D12046E16888477F1C7E
:100B20000546022F46F02006C4DBA069002803DA40
:100B3000404246F00106A061F00701D026F0100601
:100B40006C2D0BD0682D09D04C2D39D06A2D35D0A5
:100B5000742D35D07A2D33D016E038E0E1682F4679
:100B600020468847B842054609D16C2F26D04FF45D
:100B70008060E168064320468847054604E06C2F04
:100B80001AD04FF4807006430DB3A5F14100192827
:100B900002D8203546F400664A462946204626609B
:100BA0004E46FFF741FB80B101280BD0F61D26F021
:100BB000070000F1080956E74020E4E78020D8E765
:100BC0000020D6E706F104094DE7284652E7206ADF
:100BD00000F002B8F056000030BCBDE8C09F000035
:100BE0000048704750000020034640688C460028AB
:100BF00018BF88423CBF03464068F8D318681844C1
:100C0000884207D00CF1030020F00700001D411AB4
:100C1000521A0146081D0A60FFF7EBBB30B5B0F170
:100C20000A0271F100034FEA900E4EEA817EB0EBAA
:100C30000E0061EB91014FEA101E4EEA017E10EBAF
:100C40000E0041EB11114FEA102E4EEA016E10EB2F
:100C50000E0041EB11214FEA104E4EEA014E10EB0F
:100C60000E0041EB1141401841F100014FEAD00064
:100C700040EA41704FEAD1014FEA810444EA90749E
:100C800010EB800544EB01046D1944EB0404521B86
:100C9000A3414FF0000348BF0A3200D530BD401CCD
:100CA00041F1000130BD2DE9F0470D4699469246CD
:100CB000044600F124080168880604D5E06921F0A3
:100CC0001001216000E00120A84201DD471B00E087
:100CD0000027A1697A1902EB0900081AA06120789F
:100CE000C00602D42046FFF7BEFC002608E0D4E987
:100CF00001211AF806009047206A401C761C2062E9
:100D00004E45F4DB2078C0060AD52046FFF7ABFC41
:100D100006E0D4E9012130209047206A401C20627F
:100D2000381EA7F10107F4DC07E0D4E9012118F827
:100D300005009047206A401C2062281EA5F101058D
:100D4000F3DC2046FFF7A5FC2078000602D5022040
:100D5000BDE8F0870120FBE72DE9FF4F0C461E465A
:100D60004FF0FF378BB0D2E90001DDF860800A90C8
:100D70008A46C1F30A5505B93D46002108464FF0A1
:100D80000000BAF1000F00F4400005DA00EB80002B
:100D90004FF4400101EA50004FEA9059B9F1010FB8
:100DA00000DDB9460A9850EA4A000ED044F61050C9
:100DB000A5F2FF3545432F14B8F1000F1ED0754240
:100DC000291E1EDDC9F100021CE0B8F1010F4FF031
:100DD000000001D0302103E0F24305E02154401C23
:100DE000B042FBDB30460022002121540B99C1F8B0
:100DF0000880C1E900200FB000F0BCB9BD1B6D1C1C
:100E0000DEE74A4600DA694206A800F001FC06ABBC
:100E100093E8070003AB83E8070050460A9903F004
:100E2000C0FF8DE80700A0F500501F380090039820
:100E3000002D0ADD42F21F014A460844002303A99F
:100E40000390684604F02AFA09E0A0F500504A46EB
:100E50001F38002303A90390684604F034FA8DE894
:100E600007000004000C03D04FF0FF30410800E001
:100E70001046B8F1000F03D00022009215461EE084
:100E8000751E05D4FFF7CAFE303262556D1EF9D5C6
:100E9000B3460122084302D000227F1C04E02078E0
:100EA000302801D100227F1E002A099784D01DE03E
:100EB000112D07DAFFF7B2FE303262556D1C50EA91
:100EC0000102F5D1084302D00098C8B10EE000211C
:100ED000681E05E0235C625C63542254401E491C7A
:100EE0008142F7DBAB46A81B401E0990002004F8A6
:100EF0000B000B98099AC0F80880C0E9002B7AE72C
:100F000011264FF0000857E72DE9F04F88460446B8
:100F1000D21D22F0070191B0D1E90001CDE90A010B
:100F200004F008FB02460B98C00F01D02D2007E00B
:100F30002068810701D52B2002E0202101EAC000B2
:100F4000032A099001D0072A05DB034641462046C3
:100F500000F01EFB0BE12078800601D5E06900E07F
:100F60000620B8F1650F814606D0B8F1660F18D09B
:100F7000B8F1670F70D131E00020B9F1110F009086
:100F800001DB112301E009F101030AAA01A90CA860
:100F9000FFF7E2FEDDE90C70002609F1010583464A
:100FA00047E001204B4600904FF000470AAA01A9F4
:100FB0000CA8FFF7D1FEDDE90DB00C995D460026C7
:100FC00010B909F101000D18B9EB050003D4C0F107
:100FD000FF3609F10105A5EB09002BE0B9F1010F7E
:100FE00001DA4FF001090020B9F1110F00904846D5
:100FF00001DD112300E003460AAA01A90CA8FFF7AE
:10100000ABFEDDE90C704D460026834620780007D4
:101010000AD4AB4500DA5D4601A8012D04DD411973
:1010200011F8011C302907D04F4502DA17F1040FDF
:1010300004DA012082460FE06D1EEEE7002F02DC8D
:10104000ED1B3E4403E0781CA84200DD7D1CB81B6C
:1010500000F1010A4FF000472078000703D4AA45A9
:1010600001DB4FF0FF3A0021B7F1004F0DF14308CB
:101070008DF8431024D002202B23002F01DA7F4269
:101080002D230A21021EA0F1010000DC5FB197FBB5
:10109000F1FC97FBF1F201FB1C7C17460CF1300CC4
:1010A00008F801CDEEE7A8F10100037021880905D9
:1010B00001D5452100E06521A0F1010800F8011CDF
:1010C00009980FA9A1EB0807FF1D00B101204119E4
:1010D00001EBEA70A1693844081A401EA06120782B
:1010E000C00602D42046FFF7BEFA099828B1D4E919
:1010F00001219047206A401C20622078C00622D53A
:101100002046FFF7B0FA1EE0002E04DBB34502DDF7
:1011100001A8805D00E03020D4E901219047206AD9
:10112000401C2062761CAAF101005FEA000A0AD185
:1011300000F02AFAC0680168405CD4E901219047B8
:10114000206A401C2062281EA5F10105DCDC07E0B6
:10115000D4E9012118F8010B9047206A401C206255
:10116000381EA7F10107F3DC2046FFF792FA0320AF
:1011700011B041E630BCBDE8C08F00002DE9F04F52
:1011800004460D46D21D22F0070089B0D0E9009731
:101190004846394604F0CEF90246F80F01D02D2317
:1011A00007E02068810701D52B2302E0202101EA16
:1011B000C0038DF820300BB1012000E00020032A8D
:1011C000824601D0072A04DB2946204600F0E0F9D8
:1011D0003FE12078800601D40D2500E0E569C7F3E2
:1011E0000A560D2D49DA00214FEA175B08464FF0E9
:1011F0000000002F00F4400007DA00EB80004FF4FD
:10120000400100EBD07001EA60008115012901DD89
:101210004FF0FF3100224FEA850CBCF1180F06D3C6
:101220001346ACF118004FF08052C24003E04FF477
:10123000801323FA0CF30CF10C0CBCF1200F04D337
:10124000ACF1200C09FA0CF001E007FA0CF00029CF
:101250004FF0004801DD18B90FE00ED140450CD326
:1012600019EB02095F4121B9404502D19F4329EAA8
:101270000209BBEB175F00D0761C2088000502D561
:101280007B48784402E07A487844193808AA302329
:1012900002F80A30037C0AF10101002E0AF1020A69
:1012A00053546A4602DC4FF0300101E04FF0310147
:1012B0004FF001088DF8001002D0A6F2FF3603E0CF
:1012C00059EA470100D06B4E002D02DC2178090756
:1012D00004D54FF002082E218DF80110C4460021DC
:1012E0000BE0C7F303433F01C35C491C6D1E02F8CA
:1012F0000830052908F1010801DA002DF1DC002190
:101300000CE000EB1973491C1B786D1E082902F8CC
:1013100008304FEA091908F1010801DA002DF0DC64
:1013200021688B0602D516E0A8F10108E04505DD2D
:1013300002EB080313F8013C302BF5D0B8F1000F95
:1013400009DD02EB080313F8013C2E2B03D109073A
:1013500001D4A8F10108002D05DD3E2102F8081096
:101360006D1E08F10108407C002E02F8080008F10B
:10137000010804DA2D20764202F8080002E02B2052
:1013800002F808000A214FF47A70864208F1010839
:101390000BDB96FBF0F3303302F8083096FBF0F3EA
:1013A00008F1010800FB136601E0642E0CDB6420E9
:1013B00096FBF0F3303302F8083096FBF0F308F1B7
:1013C000010800FB136601E00A2E06DB96FBF1F034
:1013D000303002F8080008F1010896FBF1F001FB3B
:1013E0001060303002F80800A16908F1010808EB2C
:1013F000050202EB0A00081AA0612078C00602D498
:101400002046FFF730F9216A08AE01EB0A0020629E
:1014100004E0D4E9012116F8010B9047BAF1010A62
:10142000F7D22078C00602D52046FFF71CF96E4699
:1014300009E016F8010B3E280FD0D4E901219047AE
:10144000206A401C2062B8F10108F2D22046FFF762
:1014500020F909B0032000F00FB8206A2844206268
:1014600003E0D4E90121302090476D1EEBD3F8E76B
:10147000F24E000002FCFFFF30BCBDE8C08F10B58B
:10148000436913B1AFF3008001E0FFF725F90120B4
:1014900010BD127800F124010A7000224A70012266
:1014A000EDE711684FF0FF32E9E710B5436913B17A
:1014B000AFF3008001E0FFF7A9F9012010BD128809
:1014C00000F1240182840022C2840122EDE7116828
:1014D0004FF0FF32E9E72DE9F04116460C4605468C
:1014E00000F04AF8036893F80101012807D0FF2CA7
:1014F00012D8185D80B101202C70BDE8F081D3F8BE
:1015000007013246214603F20713C7182846BC4696
:10151000BDE8F041002360474FF0FF30EDE710B524
:1015200000F0F6F8BDE8104000F0EDB870477546E1
:10153000FFF756FBAE4605006946534620F007000C
:10154000854618B020B5FEF709FFBDE820404FF0F2
:1015500000064FF000074FF000084FF0000BAC46BC
:10156000ACE8C009ACE8C009ACE8C009ACE8C00907
:1015700021F007018D46704710B500F005F8001DF9
:1015800010BD00BF1D4000000048704770000020E3
:101590002DE9F0411F46044603260168072A01F49D
:1015A000006004DB08B116A505E016A503E008B14C
:1015B00015A500E015A521F010002060A069C01E4F
:1015C000A0610FB1401EA0612046FFF74CF84FB15B
:1015D000D4E9012138469047206A401C2062C01C93
:1015E000206206E0206AFAE7D4E9012115F8010B30
:1015F0009047761EF8D22046FFF74BF8BDE8F08101
:101600004E414E006E616E00494E4600696E6600A6
:101610002DE9F047814616468AB0354878440DC812
:101620008DE80D0032487844801C03AC0DC884E876
:101630000D0041F69B300844372190FBF1F290FBFE
:10164000F1F5A5F1800501FB12041B3C02D56442B3
:10165000012000E00020DFF898A080460027FA442F
:10166000AAF1BE0A0EE0E0070AD03246684607EB50
:10167000470101230AEB810103F025FE8DE80700F5
:1016800064107F1C002CEED1194F7F44AE3F19E04F
:10169000E80715D007EB04100DF1180A90E80E00CA
:1016A0008AE80E00C068F04201D1981908903246CD
:1016B000012306A903A803F006FE03AB83E8070095
:1016C0006D10641C002DE3D14FF0010332466946D2
:1016D000B8F1000F03A802D003F0E0FD01E003F031
:1016E000F2FDC9E90001C9F808200AB0BDE8F08799
:1016F000E84B000010B50446AFF300802046BDE87B
:101700001040FEF7FABD002801D000F029B870475C
:1017100010B5012805D0002103A000F027F8012012
:1017200010BD09A1F8E7000053494752544D454DFB
:101730003A204F7574206F662068656170206D6572
:101740006D6F7279000000003A2048656170206D6D
:10175000656D6F727920636F727275707465640065
:1017600001491820ABBEFEE72600020070B5054611
:101770000C460A2000E06D1C00F050F835B12878C6
:101780000028F8D102E0641C00F048F814B1207879
:101790000028F8D1BDE870400A2000F03FB80000F2
:1017A00030B44FF0013C50F8042B51F8043BCCFA14
:1017B00052F4D51A20D1FCB950F8042B51F8043B4F
:1017C000CCFA52F4D51A17D1B4B950F8042B51F809
:1017D000043BCCFA52F4D51A0ED16CB950F8042B54
:1017E00051F8043BCCFA52F4D51A05D1002CDAD0CA
:1017F00030BC4FF00000704729BAB1FA81F111F006
:101800001801D1F120008440F2D1CA40CB4012F03F
:10181000FF0213F0FF0330BCD01A704708B56946C9
:101820008DF800000320ABBE08BD000010B58CB0E1
:101830001020FEF7AFFD0B900C20FEF7ABFD0A90D9
:1018400069464920019008604120029008210391D7
:10185000002207920123089300F04EFA0199079A9B
:10186000089B84460298DDF82CE0CEF800C0EC46D8
:10187000CCF800100921049100F03EFA0199079A72
:10188000089B84460298DDF82CE0CEF804C0EC46B4
:10189000CCF800100A21069100F02EFA0199079A5F
:1018A000089B84460298DDF82CE0CEF808C0EC4690
:1018B000CCF800100B2100F01FFA0399079A089B3F
:1018C000DDF82CC0CCF80C00EC464F200590CCF88D
:1018D00000004220099000F00FFA0499DDF814C0CE
:1018E000079A089B864609980A9CC4F800E0EE46D1
:1018F000CEF800C000F000FADDF814C00699079A8F
:10190000089B864609980A9CC4F804E0EE46CEF887
:1019100000C000F0F1F90A9988600B990A9A6B46A9
:101920000320186040F20000C2F20000042300F01F
:10193000D5FA0CB010BD000080B5092000F082FF80
:1019400040F21441C4F20101086840F00800086048
:1019500080BD000080B582B040F21811C2F20001D3
:1019600048680B69006800210122984760B1FFE7D1
:101970000A2000F067FF40F21441C4F20101086838
:1019800040F0100008602FE040F23800C2F2000082
:10199000006880B9FFE740F2F000C2F20000006882
:1019A000C269012101919047019840F29C21C2F245
:1019B00000010860FFE740F21811C2F200014A6816
:1019C00040F2F310D06248684B6900210122984729
:1019D0000A2000F037FF40F21441C4F20101086808
:1019E00040F010000860FFE702B080BD80B540F213
:1019F0001811C2F2000148680B6900680021012239
:101A0000984760B1FFE7172000F01CFF40F2144137
:101A1000C4F20101086840F02000086046E040F28E
:101A20003800C2F20000006898B9FFE740F24400B5
:101A3000C2F200000121016040F23800C2F2000051
:101A4000016040F2F400C2F200000068C2699047F1
:101A500013E040F24400C2F200000121016040F2B4
:101A60003802C2F200020020106040F2F400C2F21C
:101A700000000068C2699047FFE740F21811C2F207
:101A800000014A6840F2F310D06248684B690021B7
:101A900001229847172000F0D5FE40F21441C4F20D
:101AA0000101086840F020000860FFE780BD0000E9
:101AB00080B58AB084460D980C98CDF824C0089162
:101AC000079206938DF817001820FEF763FC049028
:101AD00008980390099802380146029103283ED8DD
:101AE0000299DFE801F0020F1E2D04994FF08040AB
:101AF000486041F25801C4F20201086840F0010058
:101B000008602EE0049940F20040C4F200004860F2
:101B100041F25801C4F20201086840F00200086076
:101B20001FE0049940F60000C4F20000486041F252
:101B30005801C4F20201086840F00400086010E097
:101B4000049940F60040C4F20000486041F2580198
:101B5000C4F20201086840F00800086001E0FFE7F5
:101B6000FEE79DF8170001460191442809D0FFE7E0
:101B7000019855280AD1FFE7039820F01000039040
:101B800004E0039840F010000390FFE7039820F072
:101B9000080003900D99039840EAC100039007984C
:101BA000049949688862079804998860069804999E
:101BB0004968C8620398049949680860049943F227
:101BC0008940C0F60000C860049943F2BD30C0F6F9
:101BD00000000861049944F2CD60C0F6000048613D
:101BE00004980AB080BD000080B588B007900691C7
:101BF000059204938420FEF7CDFB03900798039988
:101C00000860069803994860039943F24140C0F682
:101C100000004866039943F28D50C0F600008866C4
:101C2000039943F20540C0F60000C866039943F2E9
:101C30007140C0F600000867039944F6CD00C0F675
:101C400000004867039944F23910C0F60000886725
:101C5000039944F26D60C0F60000C867039944F22E
:101C60005960C0F60000C1F880000598039908612A
:101C700000200290FFE7029801281EDCFFE7002009
:101C80000190FFE70198272812DCFFE704980299EA
:101C900001EB810300EBC300019A805C039901EB27
:101CA000C30111440875FFE7019801300190E9E78D
:101CB000FFE7029801300290DDE700F053FE039841
:101CC000436E002211469847039808B080BD00007B
:101CD00083B002900191009202980069019901225B
:101CE0008A40104020FA01F10098401AB0FA80F0C2
:101CF000400903B07047000080B588B084460A9858
:101D00008DF81FC00691059204938DF80F003020C6
:101D1000FEF740FB0290FFE7029808B9FFE7FBE7F8
:101D20009DF81F00413801460191032862D80199AE
:101D3000DFE801F00218304802994FF09040086047
:101D400041F24C00C4F202000068002048B9FFE7ED
:101D500041F24C01C4F20201086840F00100086041
:101D6000FFE749E0029940F20040C4F60000086035
:101D700041F24C00C4F202000068002048B9FFE7BD
:101D800041F24C01C4F20201086840F00200086010
:101D9000FFE731E0029940F60000C4F60000086059
:101DA00041F24C00C4F202000068002048B9FFE78D
:101DB00041F24C01C4F20201086840F004000860DE
:101DC000FFE719E0029940F60040C4F60000086001
:101DD00041F24C00C4F202000068002048B9FFE75D
:101DE00041F24C01C4F20201086840F008000860AA
:101DF000FFE701E0FFE7FEE741F24C00C4F202001A
:101E00000068002048B9FFE741F24C01C4F202012A
:101E1000086840F004000860FFE79DF80F00029991
:101E200048710698029988609DF81F000299087110
:101E3000029944F6A900C0F60000C861029943F275
:101E4000D530C0F600000862029944F6ED30C0F6C5
:101E500000008862029944F25970C0F6000048629E
:101E60000298416A884702990020C8600299086177
:101E7000059802994861049802998861029942F68E
:101E80009D60C0F60000C862029808B080BD0000E6
:101E900080B582B00190009101984EF21401CEF20B
:101EA000000108604EF21001CEF20001086840F017
:101EB00001000860009B086840F00202012B08BF87
:101EC00010460860086840F0040008604FF0FF30DA
:101ED000002100F003FD02B080BD000080B586B097
:101EE000DDF820C005900491039202933C20FEF798
:101EF00051FA019005980199086304980199886244
:101F000003980199C862029801990860089801999C
:101F100048600199002088600199C86001990861B2
:101F200001994861019988610199C8610199086224
:101F3000019981F82400019943F2F500C0F60000F0
:101F40004863019944F61510C0F6000088630198B3
:101F500006B080BD80B584B003908DED020A01917A
:101F60007820FEF717FA0090039800680099C8657A
:101F70000398406800990866029800998860019863
:101F80000068009988610198406804F019F841ECF4
:101F9000100B009880ED0C0B0198806804F010F88D
:101FA00041EC100B009880ED0E0B0099002048606A
:101FB00008600099486108610099486208620099C8
:101FC000C86288620099486408640099C86488649B
:101FD00000994865086500998865009942F21100EA
:101FE000C0F600004866009942F2B900C0F6000051
:101FF0008866009942F2A100C0F60000C866009908
:1020000042F23910C0F600000867009804B080BDA5
:1020100080B586B005908DED020B059890ED140B00
:1020200080ED100B9DED020B059880ED140B0598CB
:10203000009090ED121B90ED140B51EC110B53EC32
:10204000102B03F0CFFE41EC100B51EC100B9FED69
:10205000100B53EC102B03F0C7FD41EC100B51ECAF
:10206000100B9FED0D0B53EC102B03F095FB02466C
:10207000009801920A46019942EC101B80ED000B7A
:102080000598016F884706B080BD00BF00BF00BF44
:1020900000000000000059400000000000001C404B
:1020A00081B0009000990020486208620099C862DF
:1020B000886201B07047000080B586B005908DED54
:1020C000020B9DED020B059880ED120B0598009018
:1020D00090ED121B90ED140B51EC110B53EC102BE7
:1020E00003F080FE41EC100B51EC100B9FED0E0B3A
:1020F00053EC102B03F078FD41EC100B51EC100B5E
:102100009FED0B0B53EC102B03F046FB024600989F
:1021100001920A46019942EC101B80ED000B0598D4
:10212000016F884706B080BD0000000000005940E4
:102130000000000000001C4080B592B01190119882
:102140000A9090ED000B8DED080B806803F038FFCE
:102150009DED081B41EC100B51EC110B53EC102BB7
:1021600003F042FD02460A980B920A460B9942EC94
:10217000101B80ED040B11980C9090ED000B90ED6E
:10218000081B51EC110B53EC102B03F051FA0246D3
:102190000C980D920A460D9942EC101B80ED080B2D
:1021A000119890ED081B90ED0C0B51EC110B53ECBA
:1021B000102B03F04CFF30B9FFE7119890ED0C0B9A
:1021C00080ED080B13E0119890ED081B90ED0E0BBD
:1021D00051EC110B53EC102B03F032FF30B9FFE739
:1021E000119890ED0E0B80ED080BFFE7FFE71198BB
:1021F000049090ED080B8DED020B806903F0E0FE7A
:102200009DED021B41EC100B51EC110B53EC102B0C
:1022100003F0EAFC0246049805920A46059942EC4E
:10222000101B80ED0A0B119890ED041B90ED0A0B2A
:1022300051EC110B53EC102B03F0FAF941EC100B9D
:102240008DED0E0B0E9806900F9807901198C06DAB
:1022500003F0B6FE024606980B46079943EC102B96
:1022600053EC102B03F0F3FE48B9FFE71198C06D53
:1022700003F0A6FE41EC100B8DED0E0B1DE00E9849
:1022800000900F9801901198006E03F099FE02469D
:1022900000980B46019943EC102B53EC102B03F0E4
:1022A000CFFE48B9FFE71198006E03F089FE41ECBC
:1022B000100B8DED0E0BFFE7FFE79DED0E0B51ECC4
:1022C000100B03F083F91199886512B080BD0000EE
:1022D00080B586B0059004918DED030A02920193BA
:1022E0002820FEF757F80090059800990860049898
:1022F0000099486003980099886002980099C86026
:10230000019800994861009840684068C06A0130AF
:1023100000990861009942F27150C0F6000088618E
:10232000009942F2F940C0F60000C861009942F2FB
:102330007D40C0F600000862009942F26130C0F6AC
:1023400000004862009881699DED030A8847009863
:10235000016A88470098416A8847009806B080BDA6
:1023600082B001900198406901380146009103282C
:1023700000F279800099DFE801F0021F3C590198D2
:1023800040684168886940F0600088610198406851
:102390004168086A40F0010008620198406841689D
:1023A000086A20F002000862019840684168886964
:1023B00040F00800886158E00198406841688869E9
:1023C00040F4C0408861019840684168086A40F064
:1023D00010000862019840684168086A20F02000F7
:1023E0000862019840684168886940F4006088612B
:1023F0003BE0019840684168C86940F06000C861EE
:10240000019840684168086A40F480700862019849
:1024100040684168086A20F40070086201984068CA
:102420004168C86940F00800C8611EE00198406832
:102430004168C86940F4C040C8610198406841687B
:10244000086A40F480500862019840684168086A50
:1024500020F400500862019840684168C86940F45F
:102460000060C86101E0FFE7FEE70198406841684D
:10247000086840F00100086002B0704780B582B083
:102480000190019801684620487101980068416AEE
:1024900088470198016808688A68D11702EB517172
:1024A00021F00703D21A93000F229A40C91000EBC3
:1024B0008101086A904308620198016808688A6887
:1024C000D11702EB517121F00703D21A93000222B7
:1024D0009A40C91000EB8101086A10430862019814
:1024E0000068016880684200032000FA02F2C868B0
:1024F0009043C86002B080BD83B002900191019802
:102500000299C8609DED010AB8EE400A029890ED6C
:10251000041AB8EE411A80EE010A80ED020A029810
:10252000406901380146009103281CD80099DFE872
:1025300001F002080E1402984168C06849684863B7
:1025400013E002984168C068496888630DE002980A
:102550004168C0684968C86307E002984168C0687C
:102560004968086401E0FFE7FEE703B07047000038
:1025700083B002908DED010A0198029988609DED6B
:10258000010A029890ED041AB8EE411A20EE010AF1
:10259000BCEEC00A80ED030A02984069013801468A
:1025A000009103281CD80099DFE801F002080E14FE
:1025B00002984168C0684968486313E0029841681E
:1025C000C068496888630DE002984168C06849683E
:1025D000C86307E002984168C0684968086401E080
:1025E000FFE7FEE703B0704780B582B08DF80700C3
:1025F0001020FDF7CFFE00909DF8070000990870AD
:10260000009944F69100C0F600008860009944F2F9
:102610003D70C0F600004860009943F63D60C0F68A
:102620000000C860009802B080BD000083B0029036
:10263000019100920199012000FA01F20299486982
:10264000904348610098019900FA01F202994869A3
:102650001043486103B0704740F2A021C2F200016C
:10266000012008607047000080B586B01020C4F2D9
:1026700000000068C00740B1FFE71021C4F200016C
:10268000086820F001000860BFE01020C4F20000DC
:1026900000688007002840F1A680FFE740F278102C
:1026A000C2F20000006850B1FFE73420C4F200001D
:1026B000006840F2B421C2F2000108607EE03420DC
:1026C000C4F20000006840F2B021C2F200010860CC
:1026D00040F2B420C2F2000000680968401A059078
:1026E00040F20010C2F200008068013003F0ECF903
:1026F00041EC100B9FED481B51EC110B53EC102BD0
:1027000003F04AF841EC100B8DED020B0598B0F187
:10271000FF3F09DCFFE72C20C4F2000000680599A8
:10272000084401300590FFE7059803F0CDF941EC2E
:10273000100B9DED021B53EC112B51EC100B03F011
:102740002BF841EC110B40F2A820C2F200000090DF
:1027500090ED000B53EC112B51EC100B02F068FFC5
:102760000246009801920A46019942EC101B80ED46
:10277000000B40F27C12C2F20002116801311160BC
:1027800040F2B021C2F20001096840F2B422C2F264
:102790000002116090ED000B9FED211B53EC112BFB
:1027A00051EC100B03F05AFC38B9FFE740F27811F6
:1027B000C2F2000101200860FFE7FFE740F230119C
:1027C000C2F200014A6840F69110D06248684B6935
:1027D0000021012298471021C4F20001086820F06E
:1027E0000200086010E01020C4F2000000684007FA
:1027F000002808D5FFE71021C4F20001086820F086
:1028000004000860FFE7FFE7FFE71C2000F01AF86C
:1028100006B080BD00BF00BF0000000080844E41B4
:10282000000000000000E03F80B540F21041C4F21B
:102830000001086820F0010008601E2000F002F886
:1028400080BD000081B08DF803009DF903000028D1
:102850000ED4FFE79DF9031001F01F020120904004
:102860004A094EF28021CEF2000141F82200FFE732
:1028700001B0704781B08DF803009DF90300002876
:1028800012D4FFE79DF9031001F01F0201209040D0
:102890004A094EF28011CEF2000141F82200BFF346
:1028A0004F8FBFF36F8FFFE701B0704781B08DF896
:1028B00003009DF9030000280ED4FFE79DF90310E3
:1028C00001F01F02012090404A094EF20011CEF2A1
:1028D000000141F82200FFE701B0704782B08DF897
:1028E000070000919DF9070000280AD4FFE700982F
:1028F00000019DF907104EF20042CEF2000288540A
:102900000BE0009800019DF8071001F00F014EF652
:102910001452CEF200028854FFE702B07047000064
:1029200082B08DF8070000919DF9070000280AD4B5
:10293000FFE7009800019DF907104EF20042CEF229
:10294000000288540BE0009800019DF8071001F088
:102950000F014EF61452CEF200028854FFE702B087
:102960007047000080B582B00520019001F024FB83
:1029700001990C2001F098FA02B080BD2DE9F041D8
:10298000BAB0694646200860422000221F92012307
:1029900019931146FFF7B0F9199A1F9916906B46D3
:1029A00059605520186003201590C723FFF780F861
:1029B000159B1F9A014616989FEDDC0AFFF788FCCD
:1029C0001F9940F2E802C2F2000218921060002043
:1029D000C4F2C820389039914FF07D51359136902E
:1029E0000020CCF2C820379038A8B6EE000A8DED52
:1029F000170A35A9FFF7AEFA9DED170A0146189898
:102A000040F2E402C2F20002116000688169884766
:102A100018980068016A884718980068416A8847D2
:102A200019981F9B6946486044201B900860042049
:102A300040F69F721A921946FFF73AF819991A9AB6
:102A4000DDF87CC086461B98DEF80030DEF80440D6
:102A5000DEF80850DEF80C60DEF81070DEF8148046
:102A600040F2181EC2F2000ECEF81480CEF810709C
:102A7000CEF80C60CEF80850CEF80440CEF8003006
:102A80006B46C3F804C0186005201C9042F2067320
:102A9000FFF70EF8014608684A688B68D1F80CC049
:102AA000D1F810E04C6940F23011C2F200011E91E1
:102AB0004C61C1F810E0C1F80CC08B604A6008603E
:102AC00046F22021C0F6000121A81D905022FDF7FA
:102AD000D7FC1C991D9B1E980A22FFF785F840F22F
:102AE000B001C2F200010860FEF7A0FE014640F20C
:102AF000EC00C2F2000001600068436B43214F22EA
:102B000098471F982090FFE7209840F2EC01C2F20E
:102B1000000109684968884211DAFFE740F2EC00D9
:102B2000C2F200000068C06A209950F82100C26912
:102B300001219047FFE7209801302090E4E76946A3
:102B400049200F9008604320149004210E91002228
:102B5000129201231393FFF7CFF80E9A129B0146AE
:102B600040F2F800C2F2000001600168D1F82CC008
:102B700088680979EE46CEF800200A22E0470F99CE
:102B80001498129A139BEC46CCF800100521109172
:102B9000FFF7B2F8109A129B014640F2FC00C2F215
:102BA000000001600168D1F82CC088680979EE4600
:102BB000CEF800201722E0471498129A139BEC4697
:102BC0004F211191CCF800101146FFF795F811999B
:102BD000129A139B8446149840F2F00EC2F2000E33
:102BE000CEF800C0EC46CCF800101946FFF784F888
:102BF00040F2F401C2F20001086041F24C01C4F25B
:102C00000201086840F4005008600820C5F2040082
:102C100000688000002808D5FFE70821C5F20401FC
:102C2000086820F000500860FFE70821C5F20401A1
:102C30000B91086840F08050086040F23010C2F2FA
:102C40000000C26801210A919FED930A90470A9AF9
:102C500069464120086000231946FFF74DF80B999B
:102C600005460C952A686B68D5F808C0D5F80CE0C5
:102C70002C696E6940F24810C2F200000D90466166
:102C80000461C0F80CE0C0F808C043600260AA69A3
:102C9000EB69D5F820C0D5F824E0AC6AED6AC562CE
:102CA0008462C0F824E0C0F820C0C3618261026879
:102CB000D06A40F00100D0623022C5F204021068F0
:102CC00040F4A070106040F20832C5F204021068AF
:102CD00020F00F001060106820F440301060106881
:102CE00040F4803010600C22C5F20402106840F0FD
:102CF000100010601422C5F20402106840F4004075
:102D000010600022C5F20402106840F0010010605B
:102D1000086840F001000860FFE70020C5F20400E9
:102D20000068C00720B9FFE7F7E700BF0000000018
:102D30000021C5F20401086840F004000860082181
:102D4000C5F20401086840F00400086069464620A6
:102D50000860412005210791002206920123089373
:102D6000FEF7CAFF089B054628686A68D5F808C0C0
:102D7000D5F80CE02C696E6940F2B401C2F2000192
:102D80004E610C61C1F80CE0C1F808C04A600860EF
:102D9000A869EA69D5F820C0D5F824E0AC6AED6AE4
:102DA000CD628C62C1F824E0C1F820C0CA6188619C
:102DB000D1F82CC088680979EE4604220392CEF837
:102DC00000201722E0470698089A69464860442088
:102DD0000590086002206FF001031146FEF768FEBF
:102DE000014608684A688B68D1F80CC0D1F810E039
:102DF0004C6940F20011C2F2000104914C61C1F82B
:102E000010E0C1F80CC08B604A6008601C20FFF71E
:102E1000EBFB0399024604980260006882689047C1
:102E200004980068426853219047049801684068FC
:102E3000C9688847049B0699089A58685B6998474F
:102E40000599069BDDF820C007986A46C2F804C0C1
:102E5000116040F69F7209921946FEF729FE089903
:102E6000034609981A68D3F804C0D3F808E0DC6870
:102E70001D695E6940F23013C2F200035E611D619C
:102E8000DC60C3F808E0C3F804C01A60FFF700F87C
:102E90003AB0BDE8F08100BF6F12833A80B588B0C8
:102EA000DDF828C007908DF81B108DF81A200593C7
:102EB00041F26000C4F202000068C00748B9FFE7B1
:102EC00041F26001C4F20201086840F001000860AC
:102ED000FFE71820FDF75EFA04900598002840D01F
:102EE000FFE79DF81B0001460291412805D0FFE74E
:102EF00002984238062830D330E00798072813DCC0
:102F0000FFE707988100012000FA01F32021C4F6B1
:102F100000010A689A430A60079A920000FA02F2D6
:102F200008681043086017E007986FF01F0202EB73
:102F30008001012000FA01FC2421C4F600010B6885
:102F400023EA0C030B60079B02EB830200FA02F2F8
:102F5000086810430860FFE702E0FFE7FFE7FEE7CD
:102F600057E00798C11700EB917121F00301401A57
:102F7000800003909DF81A000499087003990720B7
:102F800088400499486004990020886007990120CE
:102F900000FA01F1049AD160079988400499086108
:102FA0009DF81B0041380146019106282ED8019951
:102FB000DFE801F004080E141A202600049900200E
:102FC000886025E0039901208840049988601FE00B
:102FD0000399022088400499886019E0039903202E
:102FE00088400499886013E003990420884004997C
:102FF00088600DE00399052088400499886007E007
:103000000399062088400499886001E0FFE7FEE705
:10301000FFE7049944F60500C0F6000048610498F3
:10302000436907990A9A98470498FDF7E2F908B0AE
:1030300080BD000080B582B040F27C10C2F200007A
:103040000090006802F040FD41EC100B40F2A82017
:10305000C2F20000019090ED001B53EC112B51ECDB
:10306000100B02F099FB009B019A41EC100B40F20F
:103070008010C2F2000080ED000B40F28C11C2F211
:10308000000101200860002119605160116040F2C8
:103090007812C2F20002116040F2C021C2F20001B7
:1030A000086002B080BD000040F2C822C2F20002F7
:1030B00092ED000A40F2CC21C2F2000191ED001A1B
:1030C000B8EEC11A80EE010A40F2C420C2F200003C
:1030D00080ED000A00201060086040F23001C2F26A
:1030E00000010120086040F2C021C2F20001086026
:1030F0007047000080B586B005908DF813108DF8EC
:1031000012209DF8130001460191432822D0FFE7C9
:10311000019852283CD1FFE700200390FFE7039875
:1031200005990968884214DAFFE79DF812000599AD
:10313000896A039A51F8221048710598806A0399A8
:1031400050F82100416A8847FFE703980130039057
:10315000E5E71DE000200290FFE702980599496825
:10316000884214DAFFE79DF812000599C96A029AAD
:1031700051F8221048710598C06A029950F8210050
:10318000416A8847FFE7029801300290E5E7FFE7D0
:1031900006B080BD80B586B005908DED020B059818
:1031A0009DED020B694681ED000B46F2DE32C0F662
:1031B00000022721FDF744F906B080BD80B58AB032
:1031C000DDF830C00990089107920693079888B1FE
:1031D000FFE709980C9B0899DDF818C06A46C2F809
:1031E00004C0116046F20F42C0F600022721FDF72D
:1031F00027F91CE0099804900C980390089800683F
:1032000002F0DEFE039B0246049805920A460599E9
:1032100042EC101B069A69468A6081ED000B46F26B
:103220000542C0F600022721FDF70AF9FFE70AB0C0
:1032300080BD0000002070470120704780B582B03B
:1032400040F2B000C2F200000068806F804740B9D1
:10325000FFE740F23400C2F200000078032807D1F3
:10326000FFE740F23401C2F200010020087007E0DD
:1032700040F23401C2F20001087801300870FFE723
:1032800040F23400C2F200000078014601910328A8
:1032900000F285800199DFE801F0020A1D5840F232
:1032A000B000C2F200000068406F804779E040F251
:1032B000B000C2F2000000688168C368C26F01EB11
:1032C000810100EBC1011944097D002918BF0121CA
:1032D000904766E040F2B000C2F2000000688268E9
:1032E000C16802EB820200EBC2000844007D10BB03
:1032F000FFE740F2B000C2F2000000688068009072
:1033000020B1FFE7009801280AD013E040F2B00096
:10331000C2F200000068D0F88010C020884709E0A1
:1033200040F2B000C2F200000068D0F880108020A7
:103330008847FFE708E040F2B000C2F200000068F2
:10334000C26F02219047FFE72BE040F2B000C2F2CB
:10335000000000688268C16802EB820200EBC200D4
:103360000844007D88B9FFE740F2B000C2F20000D7
:1033700002680021D16001688868013000EBD072DA
:1033800022F00102801A886008E040F2B000C2F228
:1033900000000168C8680130C860FFE701E0FFE78E
:1033A000FEE702B080BD000040F27810C2F20000DB
:1033B000006870474FF4FA707047000083B00290C5
:1033C0000191009202980099019A9140084003B03F
:1033D0007047000080B582B001900198407949287B
:1033E00001D0FFE70BE00199C8680861019A1068F5
:1033F00091689269FEF76CFC0199C860FFE702B022
:1034000080BD000080B582B001900199086809690B
:10341000C26849009FED090A8DED000A90470198A6
:103420004168012000F040FD9DED000A0198006810
:10343000C2680221904702B080BD00BF6F12833A7C
:1034400080B584B00390029101920299019800EB3B
:1034500081108030009000980399496800F024FDA5
:1034600002980399886001980399C86004B080BDF0
:1034700080B582B00190009100980199496800F0F0
:1034800013FD02B080BD000080B58AB0099008919C
:103490008DED070A09984068406A069006980590E5
:1034A0000120049009984068806A411C40F6001091
:1034B000C0F23D00B0FBF1F0039008980399484337
:1034C00000EE100AB8EEC00A9DED071A20EE010AC0
:1034D000BCEEC00A8DED020A00200190FFE70198C2
:1034E0000299884246D2FFE709984068406A0590F1
:1034F000099948680B690068042101229847001166
:103500000146009120B1FFE7009801281AD02EE073
:103510000598069988420DDAFFE706980599401A42
:1035200009994968C96A08440699411A01980844EA
:10353000019006E005980699411A01980844019007
:10354000FFE714E005980699884208DDFFE7069931
:103550000598081A014401980844019006E006986D
:103560000599411A019808440190FFE7FFE7059883
:103570000690B4E701980299884203D2FFE7002041
:103580000490FFE704980AB080BD000080B586B0C3
:1035900005900491049800788DF80F0000200290A7
:1035A0000190FFE79DF80F00B0B3FFE70498019981
:1035B000405C8DF80F009DF80F000A2817D1FFE737
:1035C0000298013002900598436E02990022009201
:1035D00098470098049A0199114449788DF80F1082
:1035E000059A9168013191600599C86010E09DF8D5
:1035F0000F000599496800F0A7FD0599C8680130DA
:10360000C86004990198084440788DF80F00FFE7DE
:10361000019801300190C5E706B080BD00000000B0
:1036200080B586B040F2E400C2F20000039000686A
:103630000190406E029040F28010C2F2000090EDC6
:10364000000B9FED231B53EC112B51EC100B02F0E0
:10365000CBFA41EC100B51EC100B9FED1F0B53EC10
:10366000102B02F099F8024601980B46029943ECA0
:10367000102B8847039840F2E801C2F20001096864
:103680000591896904910068806D02F099FC41EC14
:10369000100B9FED131B53EC112B51EC100B02F090
:1036A0007BF841EC100B51EC100B01F08FFF0499EB
:1036B0000246059800EE102A884740F28C11C2F2AB
:1036C00000010020086006B080BD00BF00BF00BF41
:1036D0000000000000004E4000000000008061403B
:1036E00000000000000059400020704781B040F207
:1036F0008C10C2F2000001680020009051B1FFE779
:1037000040F2A420C2F200000068B0FA80F0400944
:103710000090FFE7009800F0010001B07047000042
:1037200080B586B040F2E400C2F200000390006869
:103730000190806E029040F24800C2F200000068E2
:1037400002F03EFC024601980B46029943EC102B16
:103750008847039840F2E801C2F200010968059128
:10376000896904910068806D02F02AFC41EC100B1D
:103770009FED0D1B53EC112B51EC100B02F00CF8CC
:1037800041EC100B51EC100B01F020FF04990246A4
:10379000059800EE102A884740F2A421C2F20001E9
:1037A0000020086006B080BD000000000000594005
:1037B0000020704740F2A420C2F200000068704769
:1037C00080B582B040F28011C2F200010020019069
:1037D0004860086040F2E400C2F200000090006817
:1037E000C16E884700980068416E9FED0F0B8847B7
:1037F000009A40F2E800C2F2000000688169126895
:1038000092ED160A8847019940F23012C2F2000286
:10381000536840F69110D862506853690122984766
:1038200002B080BD00BF00BF00000000000000002B
:103830000020704780B582B040F28C10C2F20000C8
:1038400001680020019079B9FFE740F23011C2F21F
:10385000000148680B690068002101229847B0FA0E
:1038600080F040090190FFE7019800F0010002B0EC
:1038700080BD000080B58AB00020099040F244006D
:10388000C2F20000006898B1FFE740F23800C2F2CF
:103890000000006860B9FFE740F23C00C2F200009F
:1038A00046F2FE32C0F600020721FCF7C9FDB4E182
:1038B00040F2EC00C2F200000068006904900A289F
:1038C00004D0FFE704980B2849D057E140F2881054
:1038D000C2F20000016840F23C00C2F20000405C0D
:1038E0005F282FD1FFE740F28810C2F20000006885
:1038F00018B9FFE70020039007E040F28810C2F2F9
:103900000000006801380390FFE7039940F2881037
:10391000C2F2000001600068032807D1FFE740F20F
:103920008811C2F2000102200860FFE740F288100F
:10393000C2F20000026840F23C01C2F200015F20C6
:1039400088540BE040F28810C2F20000026840F296
:103950003C01C2F200015F208854FFE73FE140F2E2
:103960003C00C2F2000000785F2800F0E580FFE72D
:1039700040F28811C2F2000100200860FFE740F227
:103980008810C2F20000016840F23C00C2F2000060
:10399000405C002800F09380FFE740F28810C2F2FC
:1039A00000000068032808D1FFE740F28811C2F246
:1039B0000001086801300860FFE740F28810C2F299
:1039C0000000016840F23C00C2F20000405C5F2849
:1039D00001D1FFE76BE040F28810C2F200000268FC
:1039E00040F23C01C2F20001895C303900EE101A4D
:1039F000B8EEC00A8DED080A006804282BD3FFE753
:103A00000020C4F22010079000200690FFE70698DF
:103A100040F28811C2F200010968043988420DD2CF
:103A2000FFE79DED070AB2EE041A20EE010A8DEDC4
:103A3000070AFFE7069801300690E8E79DED080ABF
:103A40009DED071A80EE011A9DED090A30EE010A7C
:103A50008DED090A2AE04FF07E5007900020059076
:103A6000FFE7059840F28811C2F200010968C1F130
:103A7000020188420DD2FFE79DED070AB2EE041A5B
:103A800020EE010A8DED070AFFE705980130059049
:103A9000E7E79DED080A9DED072A9DED091A20EE46
:103AA000020A30EE010A8DED090AFFE7FFE740F256
:103AB0008811C2F200010868013008605FE79DEDDF
:103AC000090AB3EE091AB4EE410AF1EE10FA05DA6A
:103AD000FFE7B3EE090A8DED020A04E09DED090A45
:103AE0008DED020AFFE79DED020A40F24800C2F2A6
:103AF000000080ED000A90ED000A9FED491AB4EE37
:103B0000410AF1EE10FA05DDFFE79FED450A8DED64
:103B1000010A08E040F24800C2F2000090ED000AFD
:103B20008DED010AFFE79DED010A40F24800C2F267
:103B3000000080ED000AFFE740F28811C2F20001A8
:103B40000020086040F2A422C2F2000201211160AC
:103B500040F29C22C2F20002116040F23801C2F22F
:103B60000001086040F23C00C2F2000046F2FE3262
:103B7000C0F600020721FCF763FC30E040F2EC00E5
:103B8000C2F200000068006900F1300140F28810C4
:103B9000C2F20000036840F23C02C2F20002D154BB
:103BA0000168013101600068032807D1FFE740F296
:103BB0008811C2F20001042008600FE040F2881072
:103BC000C2F200000068062807D3FFE740F2881120
:103BD000C2F2000105200860FFE7FFE7FFE740F2BF
:103BE000B000C2F2000000683C3046F2B431C0F6CA
:103BF00000016A46116040F23C01C2F2000146F247
:103C0000EA33C0F600030122FFF7D8FA40F2901120
:103C1000C2F2000100200860FFE70AB080BD00BFCB
:103C2000000048430020704781B040F29010C2F27B
:103C300000000068B8B1FFE740F2EC00C2F20000FB
:103C40000068C06878B9FFE740F2EC00C2F20000FB
:103C50000068806838B1FFE740F23800C2F2000027
:103C60000068009002E000200090FFE7009801B09B
:103C70007047000080B582B040F2A420C2F200007C
:103C8000006838B9FFE740F2B821C2F20001002015
:103C9000086008E040F2B821C2F20001086880F034
:103CA00001000860FFE740F2F000C2F20000006887
:103CB000C269002101919047019840F29C21C2F213
:103CC0000001086040F2C021C2F20001012008603A
:103CD00002B080BD0020704740F29C20C2F200007C
:103CE0000068704780B584B040F23800C2F200002E
:103CF000006848B3FFE740F2B000C2F20000029053
:103D00000068143046F2BC32C0F60002272101914F
:103D1000FCF796FB0199029800683C3046F2CD32E0
:103D2000C0F60002FCF78CFB40F2F400C2F2000087
:103D30000068C269002103919047039840F2440152
:103D4000C2F2000108601CE0FFF794FD40F2F400AD
:103D5000C2F200000068C2690021009190470098FB
:103D600040F29C22C2F200020121116040F2B8210F
:103D7000C2F20001086040F24401C2F20001086092
:103D8000FFE740F2C021C2F200010020086004B049
:103D900080BD00000020704740F24400C2F20000E5
:103DA0000068704741F25801C4F20201086840F40B
:103DB0000010086045F20041C4F20001086820F0DC
:103DC000010008600020086045F21042C4F20002C1
:103DD00040F61370C0F2420010600868086008687E
:103DE00040F001000860704741F24C01C4F202014A
:103DF000086840F00200086040F22041C4F600016B
:103E0000086840F08840086040F20041C4F60001B4
:103E1000086820F4A040086040F20441C4F60001A4
:103E2000086840F0C000086040F20841C4F6000194
:103E3000086840F4A04008607047000081B000901E
:103E40000099886920F0030088610099886940F032
:103E5000010088610099886920F0F000886100996C
:103E6000886920F00C0088610099086A20F00B0036
:103E700008620099086A40F0010008620099086A27
:103E800020F0020008620099086A20F00800086229
:103E90000099C86820F00200C8600099C86840F026
:103EA0000200C86001B0704780B58AB008900791E1
:103EB0000020059008980690079801900198052821
:103EC00004DCFFE70198002803DCFFE705200190F0
:103ED000FFE7FFE7019808B9FFE761E001980138C3
:103EE0000190FFE70020049045F21C41C4F200015C
:103EF0001020086045F20441C4F2000108680390F4
:103F0000039820F47F00039003980022C0F202225D
:103F100010430390039840F078000390039840F416
:103F200000500390039808604FF6E77000F018FE09
:103F300045F21840C4F200000068C006002803D50E
:103F4000FFE70120049027E000200290FFE702989D
:103F5000012820DCFFE700200490029905A850F812
:103F6000210045F22841C4F2000108604FF6E770D5
:103F700000F0F6FD45F21840C4F200000068C006EB
:103F8000002803D5FFE701200490FFE7FFE7029830
:103F900001300290DBE7FFE7049800289AD1FFE7A1
:103FA000019818B9FFE70120099002E0002009906C
:103FB000FFE709980AB080BD80B594B0129046F230
:103FC000882EC0F6000EDEF80000DEF80410DEF8E1
:103FD0000820DEF80C30DEF810C0DEF814E0CDF872
:103FE00044E0CDF840C00F930E920D910C9046F234
:103FF000702EC0F6000EDEF80000DEF80410DEF8C9
:104000000820DEF80C30DEF810C0DEF814E0CDF841
:104010002CE0CDF828C0099308920791069006205D
:104020000390129801900198052804DCFFE701989D
:10403000002803DCFFE705200190FFE700F0B2FD58
:10404000FFF7D2FEFFF7AEFE4DF6F00000F088FD60
:10405000FFE7019808B9FFE761E001980138019096
:10406000FFE70020049045F21C41C4F2000110203B
:10407000086045F20441C4F2000108680290029809
:1040800020F47F00029002980022C0F20622104322
:104090000290029840F078000290029840F400509C
:1040A0000290029A0868104308604FF6E77000F02B
:1040B00057FD45F21840C4F200000068C006002811
:1040C00003D5FFE70120049025E000200590FFE7DD
:1040D0000598039988421DDAFFE705990CA850F866
:1040E000210045F22841C4F200010860059800F063
:1040F00037FD45F21840C4F200000068C0060028F1
:1041000003D5FFE70120049004E0FFE705980130A4
:104110000590DDE7FFE7049800289AD1FFE70198B2
:1041200018B9FFE70120139002E000201390FFE789
:10413000139814B080BD000045F21840C4F200008E
:104140000068C0F30010704780B58AB008900791EE
:10415000402005900898069007980190019805283E
:1041600004DCFFE70198002803DCFFE7052001904D
:10417000FFE7FFE7019808B9FFE761E00198013820
:104180000190FFE70020049045F21C41C4F20001B9
:104190001020086045F20441C4F200010868039051
:1041A000039820F47F00039003980022C0F20222BB
:1041B00010430390039840F078000390039840F474
:1041C00000500390039808604FF6E77000F0C8FCB9
:1041D00045F21840C4F200000068C006002803D56C
:1041E000FFE70120049027E000200290FFE70298FB
:1041F000012820DCFFE700200490029905A850F870
:10420000210045F22841C4F2000108604FF6E77032
:1042100000F0A6FC45F21840C4F200000068C00699
:10422000002803D5FFE701200490FFE7FFE702988D
:1042300001300290DBE7FFE7049800289AD1FFE7FE
:10424000019818B9FFE70120099002E000200990C9
:10425000FFE709980AB080BD70B5CEB000204D9040
:10426000FEF78CFB46F2A02CC0F6000CCDF804C083
:10427000DCF80000DCF80410DCF80820DCF80C3076
:10428000DCF810E0DCF814401094CDF83CE00E931C
:104290000D920C910B90DCF81800DCF81C10DCF887
:1042A0002020DCF82430DCF828C0CDF854C014936A
:1042B00013921291119046F2CC2CC0F6000CCDF85E
:1042C00008C0DCF80000DCF80410DCF80820DCF89A
:1042D0000C30DCF810E0DCF814401B94CDF868E0FA
:1042E0001993189217911690DCF81800DCF81C103E
:1042F000DCF82020DCF82430DCF828C0CDF880C0C1
:104300001F931E921D911C900BA8059058302C21D4
:104310000391FCF72CF90399059846F2F824C0F6AE
:104320000004049422686368D4F808C0D4F80CE050
:104330002569666926962595CDF890E0CDF88CC064
:1043400022932192A269E369D4F820C0D4F824E032
:10435000A46A2B94CDF8A8E0CDF8A4C028932792A6
:104360008430FCF704F9059946F2243EC0F6000EAD
:10437000CDF818E0DEF80000DEF80420DEF80830A2
:10438000DEF80CC0DEF81040DEF8145031953094A1
:10439000CDF8BCC02E932D922C90DEF81800DEF8DC
:1043A0001C20DEF82030DEF824C0DEF828E0CDF84E
:1043B000D8E0CDF8D4C034933392329046F2503ED8
:1043C000C0F6000ECDF81CE0DEF80000DEF8042098
:1043D000DEF80830DEF80CC0DEF81040DEF81450CD
:1043E0003C953B94CDF8E8C0399338923790DEF88D
:1043F0001800DEF81C20DEF82030DEF824C0DEF8DD
:1044000028E0CDF804E1CDF800C13F933E923D9005
:1044100046F27C3EC0F6000ECDF820E0DEF800004B
:10442000DEF80420DEF80830DEF80CC0DEF81040BC
:10443000DEF8145047954694CDF814C14493439246
:104440004290DEF81800DEF81C20DEF82030DEF89E
:1044500024C0DEF828E0CDF830E1CDF82CC14A9335
:104460004992489040F29410C2F200004FF48472D6
:10447000FCF74BF8FFE7FFE740F2A020C2F2000094
:10448000006808B9FFE7F7E700200A9001200990CB
:10449000FFE709980A2800F28F80FFE70A9940F2A7
:1044A0009410C2F2000000EB8100806D68B1FFE75C
:1044B0000A9940F29410C2F2000000EB8101886D6D
:1044C0000138886509980A9072E0099940F29410C1
:1044D000C2F2000000EB8100806D58B1FFE709993E
:1044E00040F29410C2F2000000EB8101886D0138A7
:1044F00088655DE00A9940F29410C2F2000000EB7A
:104500008100D0F8B000804778B9FFE70A9940F2FF
:104510009410C2F2000000EB8101D1F88400013058
:10452000C1F8840009980A9042E0099940F2941079
:10453000C2F2000000EB8100D0F8B000804768B9FB
:10454000FFE7099940F29410C2F2000000EB8101EC
:10455000D1F884000130C1F8840029E00A9840F2C3
:104560009411C2F200012C3151F82000099A51F83F
:10457000221088420FDDFFE70A9940F29410C2F240
:10458000000000EB8101D1F884000130C1F8840003
:1045900009980A900CE0099940F29410C2F20000C8
:1045A00000EB8101D1F884000130C1F88400FFE7FD
:1045B0000998013009906CE70A9940F29410C2F210
:1045C000000000EB8100D0F8B000804738B3FFE76F
:1045D0000A9940F29410C2F2000000EB8100806D55
:1045E000E8B9FFE70A9940F29410C2F20000009087
:1045F00050F82100804700980A9900EB8100D0F81C
:10460000DC008047014600980A9A00EB820291651F
:104610000A9900EB81010020C1F88400FFE740F215
:10462000A021C2F200010020086024E780B540F21A
:10463000EC00C2F200000068816B884740F29011E4
:10464000C2F20001086080BD0520704740F23800CA
:10465000C2F200000068704781B00090009845F2F7
:104660002841C4F20001086001B0704783B0029095
:1046700001910198009040B1FFE7009801280BD00C
:10468000FFE7009802280ED01CE045F22841C4F252
:1046900000010020086017E045F22841C4F2000143
:1046A0004020086010E002988268C16802EB820234
:1046B00000EBC2000844007D45F22841C4F200012D
:1046C000086001E0FFE7FEE703B0704783B00290A7
:1046D000019100920098019900FA01F2029908688C
:1046E000904308600098019900FA01F20299086865
:1046F000104308600298006803B0704780B582B02C
:104700008DF807008DF806109DF80600014600910F
:10471000432809D0FFE7009853280AD1FFE79DF905
:104720000700FEF7C3F806E09DF90700FEF7A2F8C0
:1047300001E0FFE7FEE702B080BD000080B582B077
:1047400001908DF80310019890F900009DF8031076
:10475000FFF7D4FF02B080BD83B00290029880685A
:10476000400001900199032000FA01F302990A68C0
:10477000116899431160019900FA01F202980168E9
:10478000C8689043C860029840794138014600915A
:104790000E2832D80099DFE801F026303030301C86
:1047A000303008303030303012000199022000FAE9
:1047B00001F202980168C8681043C8601FE00199BF
:1047C000012000FA01F202980168086810430860AD
:1047D00015E00199022000FA01F2029801680868C8
:1047E000104308600BE00199032000FA01F20298DF
:1047F000016808681043086001E0FFE7FEE703B0C6
:104800007047000080B584B0039002910192039834
:1048100043680298C11700EB917020F00301082251
:10482000C4F201028858984388500398836802981C
:10483000C11700EB917020F003018858184388508D
:104840000398C26840F20841C4F20101086890432D
:1048500008600398C26840F20C41C4F20101086884
:10486000104308600398026940F20041C4F201015C
:10487000086810430860039890F900000199FEF75A
:104880004FF8039890F90000FEF710F804B080BDCF
:1048900080B582B001900091019890F900000099D4
:1048A000FEF73EF802B080BD80B582B00190009165
:1048B0000199C868086100980199C8600199086861
:1048C0008968009AFDF7B2FE02B080BD81B045F262
:1048D0001C41C4F200011020086045F20441C4F2FA
:1048E000000108680090009820F47F000090009874
:1048F0000022C0F2022210430090009840F078009D
:104900000090009840F4005000900098086001B0BA
:104910007047000080B58AB009900020089009987F
:1049200090F824000146019148B1FFE70198012861
:104930006AD0FFE70198022800F0CB80FAE00999DD
:1049400000204861099988610790FFE70798099955
:104950000968884221DAFFE70998806A079950F8C8
:104960002100016A8847099988698A6A079B52F879
:104970002320D268104488610998806A079950F80A
:104980002100C06820B1FFE7079809994861FFE757
:10499000FFE7079801300790D8E70998436B522149
:1049A0004F22984700200690FFE70698099909686A
:1049B00088420DDAFFE70998806A069950F82100CD
:1049C000C26901219047FFE7069801300690ECE7A5
:1049D00000200590FFE705980999496888420DDA9B
:1049E000FFE70998C06A059950F82100C2690021C3
:1049F0009047FFE7059801300590ECE70998436B75
:104A000043214922984795E00999002008620999B5
:104A1000C8610490FFE7049809994968884221DA3F
:104A2000FFE70998C06A049950F82100016A884795
:104A30000999086ACA6A049B52F82320D268104474
:104A400008620998C06A049950F82100C06820B132
:104A5000FFE704980999C861FFE7FFE70498013070
:104A60000490D8E700200390FFE7039809990968AC
:104A700088420DDAFFE70998806A039950F821000F
:104A8000C26900219047FFE7039801300390ECE7EB
:104A90000998436B5221492298470998436B432157
:104AA0004F22984700200290FFE702980999496831
:104AB00088420DDAFFE70998C06A029950F8210090
:104AC000C26901219047FFE7029801300290ECE7AC
:104AD00030E009988069012822DBFFE70998006A25
:104AE00001281DDBFFE70999C86888600999012042
:104AF000C86009988069012811D1FFE70998006A08
:104B000001280CD1FFE709994B684A69D1F81CC00C
:104B1000086B02FB03C250F822000861FFE706E0C1
:104B20000999C868886009990020C860FFE70120DA
:104B30000890FFE7099890F82400022805D1FFE7C4
:104B40000999002081F8240006E0099991F82400D1
:104B5000013081F82400FFE708980AB080BD00000A
:104B600081B0009041F22401C4F2000108684FF6C0
:104B7000FF729043009A1043086041F20001C4F2B2
:104B80000001086840F001000860FFE741F2000002
:104B9000C4F200000068C00708B1FFE7F6E701B003
:104BA0007047000041F25801C4F20201086840F069
:104BB0001000086041F20001C4F200010820086002
:104BC00041F22802C4F200020F20106041F22402D8
:104BD000C4F2000210684FF6FE7363F30F0010601A
:104BE000086840F0010008607047000080B582B09E
:104BF00001900199C86808610199C86880F00100B6
:104C0000C860019840794F2801D0FFE706E0019A7B
:104C100010689168D268FDF709FDFFE702B080BD1A
:104C200080B58AB040F24800C2F2000000680990E6
:104C300045F25200C0F24D00089045F24540C0F2E6
:104C40003A00079044F25410C4F25270069040F2B9
:104C5000B820C2F200000068D8B3FFE740F2C420D9
:104C6000C2F20000006801F0ABF941EC100B9FEDBF
:104C7000321B53EC112B51EC100B00F08DFD41EC6D
:104C8000100B51EC100B9FED2E0B53EC102B00F082
:104C9000ABFF41EC100B51EC100B00F097FC40F215
:104CA000BC21C2F200010591086046F2A832C0F6AC
:104CB000000208A80421FBF7C3FB46F2AC32C0F6A1
:104CC000000206A80821FBF7BBFB059800680990C5
:104CD000FFE740F2B000C2F200000190006814301B
:104CE0006A4606A9116009A90022049208ABFEF7E2
:104CF00065FA019800683C30029040F28010C2F2E0
:104D0000000090ED000B9FED101B53EC112B51ECAC
:104D1000100B00F069FF0246029803920A460399BD
:104D200042EC101BFEF736FA049840F2C021C2F2A2
:104D3000000108600AB080BD5555555555551D40B8
:104D40000AD7A3703D4A3140DBB66DDBB66DDB3F61
:104D50000020704781B040F2C020C2F2000001681C
:104D60000020009051B1FFE740F23800C2F200008D
:104D70000068B0FA80F040090090FFE7009800F06A
:104D8000010001B07047000040F2B820C2F20000FC
:104D90000068002818BF0120704700004FF4C87059
:104DA00070475FEA400C08BF91F0000F4FEA8C2378
:104DB0004FEAC12243EA51514FEA1C5018BF00F597
:104DC000F0404FEA300018BF41F000415FEA6C5CF0
:104DD00000F02980BCF1FF3F08BF40F080407047E1
:104DE000130C06BF12044FF0100C4FF0000C130E02
:104DF00004BF12020CF1080C130F04BF12010CF1D6
:104E0000040C930F04BF92000CF1020CD30F04BFEB
:104E100052000CF1010C11464FF00002A0F11F00EE
:104E2000A0EB0C00704711F0004F08BF704731F045
:104E300000413FF4D5AF0B0C06BF09044FF0100C36
:104E40004FF0000C0B0E04BF09020CF1080C0B0F05
:104E500004BF09010CF1040C8B0F04BF89000CF195
:104E6000020CCB0F04BF49000CF1010CCCF1200364
:104E700022FA03F341EA030102FA0CF2A0EB0C0060
:104E800000F101007047000023F07F4720F07F4CC5
:104E900080EA030000F00040ACEB070303F57C530D
:104EA00003F1FF032DE9804909B44FEA144324EAD2
:104EB00003484FEA154B25EA0B4E0FF2042606EB8A
:104EC00013273E7803FB0667C7F5000707FB06F6C6
:104ED0004FEAD64606F102064FEA543707FB066C46
:104EE000CCF1005C4FEA1C472CEA074C0CFB06F5A2
:104EF00007FB06F404EB15464FEA961649085FEAED
:104F0000320234BF00204FF000404FEAD13706FB99
:104F100007FC4FEA1C4C0CFB0BF7D21B03FB0CF7F6
:104F200061EB07010CFB0EF7B0EB074072EB174289
:104F30000CFB08F734BFA2EB0742B2EB074261EB70
:104F400017414FEA0C444FEA910706FB07FC4FEA72
:104F50001C4C0CFB0BF7B0EBC74072EB573203FB5A
:104F60000CF734BFA2EBC742B2EBC74261EB57313B
:104F70000CFB0EF7B0EBC70072EB57720CFB08F797
:104F800034BFA2EBC702B2EBC70261EB57714FEA25
:104F9000816141EA92114FEA826242EA90124FEA3D
:104FA000806004EBCC04039F4FEAD13706FB07FC7B
:104FB0004FEA1C4C0CFB0BF7D21B03FB0CF761EB0D
:104FC00007010CFB0EF7B0EB074072EB17420CFB2E
:104FD00008F734BFA2EB0742B2EB074261EB17417F
:104FE0004FEA8C5504EB9C244FEA910706FB07FC23
:104FF0004FEA1C4C0CFB0BF7B0EBC74072EB57327F
:1050000003FB0CF734BFA2EBC742B2EBC74261EB24
:1050100057310CFB0EF7B0EBC70072EB57720CFB6D
:1050200008F734BFA2EBC702B2EBC70261EB5771BE
:105030004FEA816141EA92114FEA826242EA90129C
:105040004FEA806015EB4C2544F100044FEAD1375C
:1050500006FB07FC4FEA1C4C0CFB0BF7D21B03FBB7
:105060000CF761EB07010CFB0EF7B0EB074072EB9E
:1050700017420CFB08F734BFA2EB0742B2EB074222
:1050800061EB17414FEA813141EA92414FEA8232A6
:1050900042EA90424FEA80304FEA0C7615EB1C153D
:1050A00044F1000448EA03434EEA0B484FF0000E77
:1050B000B2EB080C71EB030724BF624639464EEB96
:1050C0000E0E4FF0000B0018524149414BEB0B0BF9
:1050D000B2EB080C71EB03077BF1000B24BF6246B7
:1050E00039464EEB0E0E4FF0000B0018524149416D
:1050F0004BEB0B0BB2EB080C71EB03077BF1000BD6
:1051000024BF624639464EEB0E0E51EA020718BF25
:1051100046F0010616EB0E7655F1000254F100013F
:1051200003D5BDE88901BDE80088BDE88901BDE877
:105130000048B619524141EB0101A3F10103704748
:1051400080807F7E7D7C7B7A7978777676757473C4
:10515000727171706F6E6E6D6C6C6B6A6A69686883
:10516000676666656464636362616160605F5F5E19
:105170005E5D5D5C5C5B5B5A5A595958585757568F
:1051800056555555545453535252525151505050F4
:105190004F4F4F4E4E4D4D4D4C4C4C4B4B4B4A4A46
:1051A0004A4949494848484747474746464645458A
:1051B00045444444444343434342424242414141C3
:1051C0009C46002B30D477002BD04FEA37071CB514
:1051D00003B44FF010004FF01001BAF1000F06D0E9
:1051E000BCF1000FDCBF40F0080040F008014FF0B8
:1051F00000000FBCBDE810400BF1010BBBF1010F2B
:1052000008BF5FEA170722BF12F1010211F1010185
:105210004FF0004143F1000300F0004043EA00007A
:105220007047F9D35708D0E746EA06464FEA1646D4
:1052300013F1400F1FDD13F1200FDFBF16430A46A5
:10524000002120335B42BED0C3F1200746EA064668
:105250004FEA164602FA07F746EA070622FA03F271
:10526000C3F1200701FA07F742EA070221FA03F126
:105270004FF00003A7E746EA020646EA06464FEA71
:10528000164646EA0106BCBF46EA0646360C4FF013
:1052900000034FF000024FF0000194E72DE9804C2D
:1052A00070B49A46934691E8380007C831EA400C3A
:1052B00048BF34EA430C03D5FFF7E6FDFFF780FF54
:1052C000F0BCBDE8008C2DE9804C70B49A46934642
:1052D00091E8380007C810F0804F08BF13F0804FE6
:1052E00003D100F005F8FFF76BFFF0BCBDE8008CC0
:1052F00020F07F4723F07F4C80EA030000F000405D
:1053000007EB0C03A3F57C53A3F1FE0392F0000F0F
:1053100000F0B38095F0000F00F077802DE901498F
:105320004FEA114021EA00484FEA144624EA0647B2
:1053300000FB06FC08FB06F607FB08F818EB06481E
:105340004CEB164C00FB07F718EB07484CEB1740EB
:105350004FEA124B22EA0B4E4FEA154625EA064762
:105360000BFB06FC0EFB06F607FB0EFE1EEB064EC5
:105370004CEB164C0BFB07F71EEB074E4CEB174B99
:1053800018EB0B0840F1000018EB0E0B58EB00086F
:1053900040F100008F1A4FF000014FF000063CBFB3
:1053A000C943661B14BFB5EB040C00213CBFC943C5
:1053B000F61B4FEA174427EA04454FEA1C472CEA3C
:1053C000074C04FB076205FB07F70CFB05F616EB21
:1053D000074642EB174204FB0CFC16EB0C4642EB73
:1053E0001C421BEB060658EB020241414EEA8E0EB0
:1053F00046EA9E0601D5BDE80189B619524141EB46
:105400000101A3F10103BDE801894FEA144524EA33
:1054100005464FEA114721EA074C05FB07F406FB56
:1054200007F70CFB06F111EB074144EB174405FBB2
:105430000CFC11EB0C4144EB1C444FEA124722EAEE
:10544000074C05FB07F206FB07F70CFB06F616EB0D
:10545000074642EB174205FB0CFC16EB0C4642EBF1
:105460001C456A1854F1000148BF7047B6195241F3
:1054700041EB0101A3F10103704795F0000F37D014
:105480004FEA114221EA02464FEA144724EA074C48
:1054900002FB07F106FB07F70CFB06F414EB0744CD
:1054A00041EB174102FB0CFC14EB0C4441EB1C419B
:1054B0004FEA154725EA074C02FB07F506FB07F7FD
:1054C0000CFB06F616EB074645EB174502FB0CFCFA
:1054D00016EB0C4645EB1C42121951F1000148BF76
:1054E0007047B619524141EB0101A3F10103704726
:1054F0004FEA144524EA05464FEA114721EA074CD2
:1055000005FB07F106FB07F70CFB06F212EB07425F
:1055100041EB174105FB0CFC12EB0C4251EB1C411B
:105520004FF0000648BF7047921841EB0101A3F10C
:105530000103704703B401984100009850EAC1206C
:1055400018BF04204A0D18BF40F0010040F2FF725E
:10555000B2EB515F08BF40F00200012808BF0520F0
:1055600002B0704730380A2801D20120704700206D
:105570007047000010B500290AD00878002807D02D
:1055800005487844FCF70CF9002801D0002010BD34
:105590000248784410BD0000B60E0000AE0E0000B8
:1055A00010B500290AD00878002807D005487844AB
:1055B000FCF7F6F8002801D0002010BD024878441E
:1055C00010BD0000A60E00009E0E000021F000425B
:1055D00001F00043A2F16052B2F5801F28BFD2F162
:1055E0007F6C0BD95FEA001C43EAC20242EB5070A9
:1055F00018BF704728BF20F001007047B2F5801F28
:10560000BCBF184670474FEA410C1CF5001F02D280
:10561000084600F07DBD70B500F090FB00000089E9
:10562000FFF7F6BF4FF00040A0F580007047000084
:1056300010B591EA030F48BF83F0004300F1DA830D
:10564000841A71EB030C05D2121943EB0C03001BF7
:1056500061EB0C014FEA1154A4EB135CDFF81CE181
:105660001EEA430F18BF9EEA445F00F0748021EAEF
:10567000045123EA0E0343F48013DCF1200E32D3ED
:1056800022FA0CFE10EB0E0023FA0CFE41EB0E0189
:10569000CCF1200E03FA0EFE10EB0E00CCF1200E22
:1056A00051F10001B1F5801F32D201EB045112FA21
:1056B0000EF2BDE8104058BF7047401C38BF5FEA8B
:1056C000420218BF7047002814BF20F0010041F1CA
:1056D00000014FEA410313F5001F38BF7047A1F1E5
:1056E000C04100F079BB012A43EB0302ACF1200C6E
:1056F000DCF11F0E32BF4FF0000E23FA0CF310EB5B
:10570000030041EB0451B4EB115FD0D0A1EB045185
:1057100001F58011490801EB04515FEA30000ED316
:1057200050F1000038BF12FA0EFE08D1BDE810405B
:10573000C9E7401C38BF5FEA4202CAD1C3E7BDE8EF
:1057400010404FEA410313F5001F38BF7047A1F125
:10575000C04100F041BB9EEA445F08D011EA5E0FF1
:10576000BDE8104004BF01F0004100207047BDE8D3
:10577000104070B500F0E2FA64FBBE3E0000E0FFAE
:10578000491058BFC1F140415B1058BFC3F14043BD
:105790008B42EFF3008070472DE9C04130B4DFF851
:1057A000A8C23CEA111418BF3CEA131400F0F080C0
:1057B0001CEA111481EA030544EAD57418BF1CEAF7
:1057C000131500F0CB80A4EB050404F17F7404F5FD
:1057D00000344FF0004545EAC12145EAC32341EAC0
:1057E000505143EA52534FEAC0204FEAC222994235
:1057F00008BF904200F0A0804FEA13650FF24816F0
:10580000765D4FEA134506FB05F7C7F1807706FB87
:1058100007F74FEAD737A7FB03687642A7FB06CE08
:10582000C8F5803838BFA8F1010807FB08E6A6FBD9
:10583000028C4FF0000EE6FB03CED8F100086FEAB1
:105840000C0C5CF1000C6FEA0E0E4EF1004EA6FB44
:105850000C584FF00007E6FB0E87A1FB08C6A0FB23
:1058600007CE16EB0E064FF0000545F10005E1FBF3
:10587000076515F1E04E7EBFA4F580345FEA460669
:105880006D4116F1800745F100054FEA172747EAF9
:1058900005674FEA15254FEA0666A6F1DE46B6F122
:1058A000805F20D9384605EBC47124F0010C01EB70
:1058B0000C11BCF1FE6F02D8F0BCBDE8008124429F
:1058C0005CBF01F5801E9EEAC47F02D4F0BCBDE837
:1058D0000081244200F13980A1F1C041F0BCBDE853
:1058E000004100F079BA4FEAD02040EA41504FEA37
:1058F000D1214FEAD22242EA43524FEAD323A7FBF7
:10590000028607FB036605FB02661EEA0E0F58BF00
:10591000A6EB0056B6EB00564FEA520E4EEAC37E97
:1059200018EB0E0E56EB530EBCD518EB02085E4179
:105930007F1C55F10005B5E74FF480154FF00007C7
:105940004FF000064FF00008ACE701F1C04101F054
:1059500000414FF00000F0BCBDE800810CEA1315D7
:1059600011EA0C1F00D00CE013EA0C1F00F0258098
:105970004FF0000081EA030101F00041F0BCBDE8F6
:105980000081F0BCBDE8004181EA030100F024BAC7
:10599000F0BCBDE8004170B500F0D0F9097EFC3ED6
:1059A00000F007B84FF0000081EA030101F0004168
:1059B000704781EA030100F00FBAF0BCBDE8004176
:1059C00022494FF000007047FFFDFBF9F7F5F4F2B4
:1059D000F0EEEDEBE9E8E6E4E3E1E0DEDDDBDAD88A
:1059E000D7D5D4D3D1D0CFCDCCCBCAC8C7C6C5C4E8
:1059F000C2C1C0BFBEBDBCBBBAB9B8B7B6B5B4B3FF
:105A0000B2B1B0AFAEADACABAAA9A8A8A7A6A5A4E9
:105A1000A3A3A2A1A09F9F9E9D9C9C9B9A999998AD
:105A20009797969595949393929191908F8F8E8E50
:105A30008D8C8C8B8B8A89898888878786858584DD
:105A400084838382828181800000FF070000F87FC9
:105A500051EA030C17D41CF5801F58BFBCF5801FFA
:105A600000F10680994218BF704708BF9042704706
:105A700007D711F5801F58BF13F5801F19D499421D
:105A80007047894270471CF5801F08D5BCF5801F00
:105A9000F7D58B4218BF704708BF824270474FF45A
:105AA000001C1CEB410F38BF1CEB430F01D28B4293
:105AB000704770B500F042F9922449004FF0005150
:105AC0004FF08053FFF75CBE10F0004248BF4042E9
:105AD000B0FA80F310FA03F10AD0C3F11D0303F505
